{
  "_format": "hh-sol-artifact-1",
  "contractName": "PoolMaster",
  "sourceName": "src/backend/contracts/PoolMaster.sol",
  "abi": [
    {
      "inputs": [],
      "stateMutability": "nonpayable",
      "type": "constructor"
    },
    {
      "anonymous": false,
      "inputs": [
        {
          "indexed": false,
          "internalType": "address",
          "name": "user",
          "type": "address"
        },
        {
          "indexed": false,
          "internalType": "uint256",
          "name": "tokenId",
          "type": "uint256"
        },
        {
          "indexed": false,
          "internalType": "bool",
          "name": "isAlpha",
          "type": "bool"
        }
      ],
      "name": "MintSuccessful",
      "type": "event"
    },
    {
      "anonymous": false,
      "inputs": [
        {
          "indexed": true,
          "internalType": "address",
          "name": "previousOwner",
          "type": "address"
        },
        {
          "indexed": true,
          "internalType": "address",
          "name": "newOwner",
          "type": "address"
        }
      ],
      "name": "OwnershipTransferred",
      "type": "event"
    },
    {
      "inputs": [],
      "name": "battlingPhaseDuration",
      "outputs": [
        {
          "internalType": "uint256",
          "name": "",
          "type": "uint256"
        }
      ],
      "stateMutability": "view",
      "type": "function"
    },
    {
      "inputs": [],
      "name": "bettingPhaseDuration",
      "outputs": [
        {
          "internalType": "uint256",
          "name": "",
          "type": "uint256"
        }
      ],
      "stateMutability": "view",
      "type": "function"
    },
    {
      "inputs": [],
      "name": "burnedTokensPercent",
      "outputs": [
        {
          "internalType": "uint256",
          "name": "",
          "type": "uint256"
        }
      ],
      "stateMutability": "view",
      "type": "function"
    },
    {
      "inputs": [
        {
          "internalType": "uint256",
          "name": "_poolWinnerId",
          "type": "uint256"
        }
      ],
      "name": "endEpoch",
      "outputs": [],
      "stateMutability": "nonpayable",
      "type": "function"
    },
    {
      "inputs": [],
      "name": "epochEnded",
      "outputs": [
        {
          "internalType": "bool",
          "name": "",
          "type": "bool"
        }
      ],
      "stateMutability": "view",
      "type": "function"
    },
    {
      "inputs": [
        {
          "internalType": "address",
          "name": "_user",
          "type": "address"
        }
      ],
      "name": "getIsUsdcForAddress",
      "outputs": [
        {
          "internalType": "bool",
          "name": "",
          "type": "bool"
        }
      ],
      "stateMutability": "view",
      "type": "function"
    },
    {
      "inputs": [
        {
          "internalType": "uint256",
          "name": "_poolId",
          "type": "uint256"
        }
      ],
      "name": "getLastWinner",
      "outputs": [
        {
          "internalType": "string",
          "name": "",
          "type": "string"
        }
      ],
      "stateMutability": "view",
      "type": "function"
    },
    {
      "inputs": [],
      "name": "getPhase",
      "outputs": [
        {
          "internalType": "uint256",
          "name": "",
          "type": "uint256"
        }
      ],
      "stateMutability": "view",
      "type": "function"
    },
    {
      "inputs": [
        {
          "internalType": "address",
          "name": "_user",
          "type": "address"
        }
      ],
      "name": "getPoolIdForAddress",
      "outputs": [
        {
          "internalType": "uint256",
          "name": "",
          "type": "uint256"
        }
      ],
      "stateMutability": "view",
      "type": "function"
    },
    {
      "inputs": [
        {
          "internalType": "uint256",
          "name": "_poolId",
          "type": "uint256"
        },
        {
          "internalType": "bool",
          "name": "_isUsdc",
          "type": "bool"
        }
      ],
      "name": "getStakedTokens",
      "outputs": [
        {
          "internalType": "uint256",
          "name": "",
          "type": "uint256"
        }
      ],
      "stateMutability": "view",
      "type": "function"
    },
    {
      "inputs": [
        {
          "internalType": "address",
          "name": "_user",
          "type": "address"
        }
      ],
      "name": "getStakedTokensForAddress",
      "outputs": [
        {
          "internalType": "uint256",
          "name": "",
          "type": "uint256"
        }
      ],
      "stateMutability": "view",
      "type": "function"
    },
    {
      "inputs": [
        {
          "internalType": "uint256",
          "name": "_poolId",
          "type": "uint256"
        }
      ],
      "name": "getSymbol",
      "outputs": [
        {
          "internalType": "string",
          "name": "",
          "type": "string"
        }
      ],
      "stateMutability": "view",
      "type": "function"
    },
    {
      "inputs": [
        {
          "internalType": "uint256",
          "name": "_lastSeconds",
          "type": "uint256"
        }
      ],
      "name": "getWinnerAddressAmountsForLastSeconds",
      "outputs": [
        {
          "internalType": "uint256[]",
          "name": "",
          "type": "uint256[]"
        }
      ],
      "stateMutability": "view",
      "type": "function"
    },
    {
      "inputs": [
        {
          "internalType": "uint256",
          "name": "_lastSeconds",
          "type": "uint256"
        }
      ],
      "name": "getWinnerAddressIsUsdcForLastSeconds",
      "outputs": [
        {
          "internalType": "bool[]",
          "name": "",
          "type": "bool[]"
        }
      ],
      "stateMutability": "view",
      "type": "function"
    },
    {
      "inputs": [
        {
          "internalType": "uint256",
          "name": "_lastSeconds",
          "type": "uint256"
        }
      ],
      "name": "getWinnerAddressStakerAddressForLastSeconds",
      "outputs": [
        {
          "internalType": "address[]",
          "name": "",
          "type": "address[]"
        }
      ],
      "stateMutability": "view",
      "type": "function"
    },
    {
      "inputs": [],
      "name": "loserTokensPercent",
      "outputs": [
        {
          "internalType": "uint256",
          "name": "",
          "type": "uint256"
        }
      ],
      "stateMutability": "view",
      "type": "function"
    },
    {
      "inputs": [],
      "name": "owner",
      "outputs": [
        {
          "internalType": "address",
          "name": "",
          "type": "address"
        }
      ],
      "stateMutability": "view",
      "type": "function"
    },
    {
      "inputs": [],
      "name": "pool3TokensPercent",
      "outputs": [
        {
          "internalType": "uint256",
          "name": "",
          "type": "uint256"
        }
      ],
      "stateMutability": "view",
      "type": "function"
    },
    {
      "inputs": [],
      "name": "renounceOwnership",
      "outputs": [],
      "stateMutability": "nonpayable",
      "type": "function"
    },
    {
      "inputs": [
        {
          "internalType": "uint256",
          "name": "_battlingPhaseDuration",
          "type": "uint256"
        }
      ],
      "name": "setBattlingPhaseDuration",
      "outputs": [],
      "stateMutability": "nonpayable",
      "type": "function"
    },
    {
      "inputs": [
        {
          "internalType": "uint256",
          "name": "_bettingPhaseDuration",
          "type": "uint256"
        }
      ],
      "name": "setBettingPhaseDuration",
      "outputs": [],
      "stateMutability": "nonpayable",
      "type": "function"
    },
    {
      "inputs": [
        {
          "internalType": "uint256",
          "name": "_burnedTokensPercent",
          "type": "uint256"
        }
      ],
      "name": "setBurnedTokensPercent",
      "outputs": [],
      "stateMutability": "nonpayable",
      "type": "function"
    },
    {
      "inputs": [
        {
          "internalType": "uint256",
          "name": "_loserTokensPercent",
          "type": "uint256"
        }
      ],
      "name": "setLoserTokensPercent",
      "outputs": [],
      "stateMutability": "nonpayable",
      "type": "function"
    },
    {
      "inputs": [
        {
          "internalType": "uint256",
          "name": "_pool3TokensPercent",
          "type": "uint256"
        }
      ],
      "name": "setPool3TokensPercent",
      "outputs": [],
      "stateMutability": "nonpayable",
      "type": "function"
    },
    {
      "inputs": [
        {
          "internalType": "address",
          "name": "_tokenAddress",
          "type": "address"
        }
      ],
      "name": "setTokenAddress",
      "outputs": [],
      "stateMutability": "nonpayable",
      "type": "function"
    },
    {
      "inputs": [
        {
          "internalType": "uint256",
          "name": "_unstakeFee",
          "type": "uint256"
        }
      ],
      "name": "setUnstakeFee",
      "outputs": [],
      "stateMutability": "nonpayable",
      "type": "function"
    },
    {
      "inputs": [
        {
          "internalType": "address",
          "name": "_usdcAddress",
          "type": "address"
        }
      ],
      "name": "setUsdcAddress",
      "outputs": [],
      "stateMutability": "nonpayable",
      "type": "function"
    },
    {
      "inputs": [
        {
          "internalType": "uint256",
          "name": "_usdcStakeFee",
          "type": "uint256"
        }
      ],
      "name": "setUsdcStakeFee",
      "outputs": [],
      "stateMutability": "nonpayable",
      "type": "function"
    },
    {
      "inputs": [
        {
          "internalType": "uint256",
          "name": "_winnerTokensPercent",
          "type": "uint256"
        }
      ],
      "name": "setWinnerTokensPercent",
      "outputs": [],
      "stateMutability": "nonpayable",
      "type": "function"
    },
    {
      "inputs": [
        {
          "internalType": "uint256",
          "name": "_poolId",
          "type": "uint256"
        },
        {
          "internalType": "uint256",
          "name": "_amount",
          "type": "uint256"
        },
        {
          "internalType": "bool",
          "name": "_isUsdc",
          "type": "bool"
        }
      ],
      "name": "stake",
      "outputs": [],
      "stateMutability": "payable",
      "type": "function"
    },
    {
      "inputs": [
        {
          "internalType": "string",
          "name": "_symbol1",
          "type": "string"
        },
        {
          "internalType": "string",
          "name": "_symbol2",
          "type": "string"
        }
      ],
      "name": "startEpoch",
      "outputs": [],
      "stateMutability": "nonpayable",
      "type": "function"
    },
    {
      "inputs": [],
      "name": "timestampStartEpoch",
      "outputs": [
        {
          "internalType": "uint256",
          "name": "",
          "type": "uint256"
        }
      ],
      "stateMutability": "view",
      "type": "function"
    },
    {
      "inputs": [],
      "name": "token",
      "outputs": [
        {
          "internalType": "contract IERC20",
          "name": "",
          "type": "address"
        }
      ],
      "stateMutability": "view",
      "type": "function"
    },
    {
      "inputs": [
        {
          "internalType": "address",
          "name": "newOwner",
          "type": "address"
        }
      ],
      "name": "transferOwnership",
      "outputs": [],
      "stateMutability": "nonpayable",
      "type": "function"
    },
    {
      "inputs": [],
      "name": "unstakeFee",
      "outputs": [
        {
          "internalType": "uint256",
          "name": "",
          "type": "uint256"
        }
      ],
      "stateMutability": "view",
      "type": "function"
    },
    {
      "inputs": [],
      "name": "usdc",
      "outputs": [
        {
          "internalType": "contract IERC20",
          "name": "",
          "type": "address"
        }
      ],
      "stateMutability": "view",
      "type": "function"
    },
    {
      "inputs": [],
      "name": "usdcStakeFee",
      "outputs": [
        {
          "internalType": "uint256",
          "name": "",
          "type": "uint256"
        }
      ],
      "stateMutability": "view",
      "type": "function"
    },
    {
      "inputs": [],
      "name": "winnerTokensPercent",
      "outputs": [
        {
          "internalType": "uint256",
          "name": "",
          "type": "uint256"
        }
      ],
      "stateMutability": "view",
      "type": "function"
    },
    {
      "inputs": [],
      "name": "withdrawEth",
      "outputs": [],
      "stateMutability": "nonpayable",
      "type": "function"
    },
    {
      "inputs": [],
      "name": "withdrawToken",
      "outputs": [],
      "stateMutability": "nonpayable",
      "type": "function"
    },
    {
      "inputs": [],
      "name": "withdrawUsdc",
      "outputs": [],
      "stateMutability": "nonpayable",
      "type": "function"
    }
  ],
  "bytecode": "0x6080604052617080600355620151806004556104e2600555611f4060065561019060075561064060085560c86009556064600a55600b805460ff191660011790553480156200004d57600080fd5b50620000593362000217565b6040805160a081018252600060808201818152825282516020818101855282825283015291810182905260608101829052600d80546001810182559252805190916004026000805160206200349c83398151915201908190620000bd90826200030c565b5060208201516001820190620000d490826200030c565b506040828101516002830155606092830151600390920191909155805160a0810182526000608082018181528252825160208181018552828252830152918101829052918201819052600d80546001810182559152815160049091026000805160206200349c833981519152019081906200015090826200030c565b50602082015160018201906200016790826200030c565b506040828101516002830155606092830151600390920191909155805160a0810182526000608082018181528252825160208181018552828252830152918101829052918201819052600d80546001810182559152815160049091026000805160206200349c83398151915201908190620001e390826200030c565b5060208201516001820190620001fa90826200030c565b5060408201518160020155606082015181600301555050620003d8565b600080546001600160a01b038381166001600160a01b0319831681178455604051919092169283917f8be0079c531659141344cd1fd0a4f28419497f9722a3daafe3b4186f6b6457e09190a35050565b634e487b7160e01b600052604160045260246000fd5b600181811c908216806200029257607f821691505b602082108103620002b357634e487b7160e01b600052602260045260246000fd5b50919050565b601f8211156200030757600081815260208120601f850160051c81016020861015620002e25750805b601f850160051c820191505b818110156200030357828155600101620002ee565b5050505b505050565b81516001600160401b0381111562000328576200032862000267565b62000340816200033984546200027d565b84620002b9565b602080601f8311600181146200037857600084156200035f5750858301515b600019600386901b1c1916600185901b17855562000303565b600085815260208120601f198616915b82811015620003a95788860151825594840194600190910190840162000388565b5085821015620003c85787850151600019600388901b60f8161c191681555b5050505050600190811b01905550565b6130b480620003e86000396000f3fe6080604052600436106102455760003560e01c80638da5cb5b11610139578063bc770d06116100b6578063d8e660ed1161007a578063d8e660ed146106b4578063dc08e769146106ed578063eced02801461071a578063f2fde38b1461072f578063fc0c546a1461074f578063fee84d4e1461076f57600080fd5b8063bc770d0614610629578063ca628c7814610649578063d38bcdee1461065e578063d459a4181461067e578063d5030a031461069457600080fd5b80639a1dee2b116100fd5780639a1dee2b146105b25780639ee664b6146105c8578063a0ef91df146105de578063ae3e04b1146105f3578063ba2f303b1461061357600080fd5b80638da5cb5b146105125780638ea97d2614610530578063949240d414610546578063989e92991461056657806398c44b7d1461057c57600080fd5b8063561b2463116101c757806364cc37fb1161018b57806364cc37fb14610470578063715018a6146104905780637d8704b1146104a55780638301151c146104d25780638bbbbbde146104f257600080fd5b8063561b2463146103cb5780635a8b9599146103de5780635cdef57d1461041a5780636164e45d146104305780636418413c1461045057600080fd5b80631f5c735b1161020e5780631f5c735b1461031957806325b511bd1461033d57806326a4e8d2146103535780633e413bee1461037357806352916f25146103ab57600080fd5b806218a1161461024a57806307ed92d01461026c57806316ea2c571461028c578063175db3c4146102c25780631d1c7fab146102ec575b600080fd5b34801561025657600080fd5b5061026a610265366004612a09565b610784565b005b34801561027857600080fd5b5061026a610287366004612a09565b610791565b34801561029857600080fd5b506102ac6102a7366004612a09565b61079e565b6040516102b99190612a46565b60405180910390f35b3480156102ce57600080fd5b50600b546102dc9060ff1681565b60405190151581526020016102b9565b3480156102f857600080fd5b5061030c610307366004612a09565b610854565b6040516102b99190612a79565b34801561032557600080fd5b5061032f60055481565b6040519081526020016102b9565b34801561034957600080fd5b5061032f60045481565b34801561035f57600080fd5b5061026a61036e366004612abf565b6109a6565b34801561037f57600080fd5b50600254610393906001600160a01b031681565b6040516001600160a01b0390911681526020016102b9565b3480156103b757600080fd5b5061026a6103c6366004612a09565b6109d0565b61026a6103d9366004612afd565b6109dd565b3480156103ea57600080fd5b506102dc6103f9366004612abf565b6001600160a01b03166000908152600e602052604090206002015460ff1690565b34801561042657600080fd5b5061032f60085481565b34801561043c57600080fd5b5061026a61044b366004612a09565b610fc5565b34801561045c57600080fd5b506102ac61046b366004612a09565b611df6565b34801561047c57600080fd5b5061026a61048b366004612a09565b611e27565b34801561049c57600080fd5b5061026a611e34565b3480156104b157600080fd5b506104c56104c0366004612a09565b611e48565b6040516102b99190612b36565b3480156104de57600080fd5b5061026a6104ed366004612a09565b611fa6565b3480156104fe57600080fd5b5061026a61050d366004612a09565b611fb3565b34801561051e57600080fd5b506000546001600160a01b0316610393565b34801561053c57600080fd5b5061032f60095481565b34801561055257600080fd5b5061032f610561366004612b77565b611fc0565b34801561057257600080fd5b5061032f60035481565b34801561058857600080fd5b5061032f610597366004612abf565b6001600160a01b03166000908152600e602052604090205490565b3480156105be57600080fd5b5061032f600c5481565b3480156105d457600080fd5b5061032f60065481565b3480156105ea57600080fd5b5061026a612020565b3480156105ff57600080fd5b5061026a61060e366004612a09565b612057565b34801561061f57600080fd5b5061032f60075481565b34801561063557600080fd5b5061026a610644366004612a09565b612064565b34801561065557600080fd5b5061026a612071565b34801561066a57600080fd5b5061026a610679366004612abf565b612163565b34801561068a57600080fd5b5061032f600a5481565b3480156106a057600080fd5b5061026a6106af366004612bf0565b61218d565b3480156106c057600080fd5b5061032f6106cf366004612abf565b6001600160a01b03166000908152600e602052604090206001015490565b3480156106f957600080fd5b5061070d610708366004612a09565b612367565b6040516102b99190612c5c565b34801561072657600080fd5b5061032f61249e565b34801561073b57600080fd5b5061026a61074a366004612abf565b6124ea565b34801561075b57600080fd5b50600154610393906001600160a01b031681565b34801561077b57600080fd5b5061026a612560565b61078c6125a2565b600955565b6107996125a2565b600455565b6060600d82815481106107b3576107b3612c94565b906000526020600020906004020160010180546107cf90612caa565b80601f01602080910402602001604051908101604052809291908181526020018280546107fb90612caa565b80156108485780601f1061081d57610100808354040283529160200191610848565b820191906000526020600020905b81548152906001019060200180831161082b57829003601f168201915b50505050509050919050565b60125460609042906000805b828110156108b55783866012838154811061087d5761087d612c94565b9060005260206000209060030201600201546108999190612cfa565b11156108ad57816108a981612d0d565b9250505b600101610860565b5060008167ffffffffffffffff8111156108d1576108d1612d26565b6040519080825280602002602001820160405280156108fa578160200160208202803683370190505b50905060005b8381101561099c5784876012838154811061091d5761091d612c94565b9060005260206000209060030201600201546109399190612cfa565b1115610994576012818154811061095257610952612c94565b906000526020600020906003020160010160009054906101000a900460ff1682828151811061098357610983612c94565b911515602092830291909101909101525b600101610900565b5095945050505050565b6109ae6125a2565b600180546001600160a01b0319166001600160a01b0392909216919091179055565b6109d86125a2565b600a55565b600b5460ff1615610a2d5760405162461bcd60e51b8152602060048201526015602482015274115c1bd8da081b9bdd081cdd185c9d1959081e595d605a1b60448201526064015b60405180910390fd5b610a3561249e565b15610a825760405162461bcd60e51b815260206004820152601860248201527f42657474696e672070686173652068617320656e6465642e00000000000000006044820152606401610a24565b6002831115610ac55760405162461bcd60e51b815260206004820152600f60248201526e125b9d985b1a59081c1bdbdb081259608a1b6044820152606401610a24565b336000908152600e602052604090206002015461010090046001600160a01b031615610b3e5760405162461bcd60e51b815260206004820152602260248201527f5573657220616c7265616479207374616b656420666f7220746869732065706f6044820152610c6d60f31b6064820152608401610a24565b818115610bcf576001841115610b885760405162461bcd60e51b815260206004820152600f60248201526e125b9d985b1a59081c1bdbdb081259608a1b6044820152606401610a24565b612710600a54612710610b9b9190612d3c565b610ba59085612d4f565b610baf9190612d66565b600254909150610bca906001600160a01b03163330866125fc565b610be7565b600154610be7906001600160a01b03163330866125fc565b60008111610c375760405162461bcd60e51b815260206004820152601d60248201527f4d757374207374616b65206d6f7265207468616e203020746f6b656e730000006044820152606401610a24565b60408051608081018252858152602080820184815285151583850190815233606085018181526000918252600e90945294909420835181559051600182015592516002909301805491516001600160a81b0319909216931515610100600160a81b031916939093176101006001600160a01b03909216919091021790915582610cc05783610cc3565b60005b600d8681548110610cd657610cd6612c94565b90600052602060002090600402016002016000828254610cf69190612cfa565b90915550839050610d08576000610d0a565b835b600d8681548110610d1d57610d1d612c94565b90600052602060002090600402016003016000828254610d3d9190612cfa565b90915550506000859003610e1857600f8054600181018255600091909152815160039091027f8d1108e10bcb7c27dddfc02ed9d693a074039d026cf4ea4240b40f7d581ac80281019190915560208201517f8d1108e10bcb7c27dddfc02ed9d693a074039d026cf4ea4240b40f7d581ac80382015560408201517f8d1108e10bcb7c27dddfc02ed9d693a074039d026cf4ea4240b40f7d581ac804909101805460608401516001600160a01b031661010002610100600160a81b0319931515939093166001600160a81b031990911617919091179055610fbe565b84600103610eed5760108054600181018255600091909152815160039091027f1b6847dc741a1b0cd08d278845f9d819d87b734759afb55fe2de5cb82a9ae67281019190915560208201517f1b6847dc741a1b0cd08d278845f9d819d87b734759afb55fe2de5cb82a9ae67382015560408201517f1b6847dc741a1b0cd08d278845f9d819d87b734759afb55fe2de5cb82a9ae674909101805460608401516001600160a01b031661010002610100600160a81b0319931515939093166001600160a81b031990911617919091179055610fbe565b84600203610fbe5760118054600181018255600091909152815160039091027f31ecc21a745e3968a04e9570e4425bc18fa8019c68028196b546d1669c200c6881019190915560208201517f31ecc21a745e3968a04e9570e4425bc18fa8019c68028196b546d1669c200c6982015560408201517f31ecc21a745e3968a04e9570e4425bc18fa8019c68028196b546d1669c200c6a909101805460608401516001600160a01b031661010002610100600160a81b0319931515939093166001600160a81b0319909116179190911790555b5050505050565b610fcd6125a2565b600b5460ff16156110205760405162461bcd60e51b815260206004820152601b60248201527f43757272656e742065706f636820616c726561647920656e64656400000000006044820152606401610a24565b600b805460ff1916600190811790915560009061103e908390612d3c565b90506000811561105057601054611054565b600f545b9050600083156110665760105461106a565b600f545b905060405180602001604052806000815250600d848154811061108f5761108f612c94565b906000526020600020906004020160010190816110ac9190612deb565b50600d84815481106110c0576110c0612c94565b9060005260206000209060040201600001600d85815481106110e4576110e4612c94565b906000526020600020906004020160010190816111019190612ea5565b5060008060005b848110156113f5576000861561113e576010828154811061112b5761112b612c94565b9060005260206000209060030201611160565b600f828154811061115157611151612c94565b90600052602060002090600302015b604080516080810182528254815260018301546020820181905260029093015460ff81161515928201929092526101009091046001600160a01b03166060820152600554909250600091612710916111b791612d4f565b6111c19190612d66565b905060008183602001516111d59190612d3c565b90506112076040518060400160405280600f81526020016e17dd5cd95c931bdcd9505b5bdd5b9d608a1b81525061265c565b6112108261269f565b6112406040518060400160405280600f81526020016e17dd5cd95c92d9595c105b5bdd5b9d608a1b81525061265c565b6112498161269f565b8260400151156112e057600254606084015160405163a9059cbb60e01b81526001600160a01b0391821660048201526024810184905291169063a9059cbb906044016020604051808303816000875af11580156112aa573d6000803e3d6000fd5b505050506040513d601f19601f820116820180604052508101906112ce9190612f72565b506112d98286612cfa565b9450611369565b600154606084015160405163a9059cbb60e01b81526001600160a01b0391821660048201526024810184905291169063a9059cbb906044016020604051808303816000875af1158015611337573d6000803e3d6000fd5b505050506040513d601f19601f8201168201806040525081019061135b9190612f72565b506113668287612cfa565b95505b5050604080516080810182526000808252602080830182815283850183815260608086018581529701516001600160a01b039081168552600e90935294909220925183559051600183810191909155925160029092018054945190911661010002610100600160a81b0319921515929092166001600160a81b0319909416939093171790915501611108565b506000612710600654846114099190612d4f565b6114139190612d66565b90506000612710600654846114289190612d4f565b6114329190612d66565b90506000806000600d8b8154811061144c5761144c612c94565b906000526020600020906004020160020154111561149757600d8a8154811061147757611477612c94565b906000526020600020906004020160020154846114949190612d66565b91505b6000600d8b815481106114ac576114ac612c94565b90600052602060002090600402016003015411156114f757600d8a815481106114d7576114d7612c94565b906000526020600020906004020160030154836114f49190612d66565b90505b60005b878110156119465760008b15611530576010828154811061151d5761151d612c94565b9060005260206000209060030201611552565b600f828154811061154357611543612c94565b90600052602060002090600302015b60408051608081018252825481526001830154602082015260029092015460ff81161580159284019290925261010090046001600160a01b0316606083015290915061172c57600254606082015160208301516001600160a01b039092169163a9059cbb91906115c3908790612cfa565b6040516001600160e01b031960e085901b1681526001600160a01b03909216600483015260248201526044016020604051808303816000875af115801561160e573d6000803e3d6000fd5b505050506040513d601f19601f820116820180604052508101906116329190612f72565b5060408051608081018252848152828201511515602082019081526060808501516001600160a01b039081169484019485524291840191825260128054600181018255600091909152935160039094027fbb8a6a4669ba250d26cd7a459eca9d215f8307e33aebe50379bc5a3617ec344481019490945591517fbb8a6a4669ba250d26cd7a459eca9d215f8307e33aebe50379bc5a3617ec344584018054955190931661010002610100600160a81b0319911515919091166001600160a81b03199095169490941793909317905590517fbb8a6a4669ba250d26cd7a459eca9d215f8307e33aebe50379bc5a3617ec3446909101556118bc565b600154606082015160208301516001600160a01b039092169163a9059cbb9190611757908890612cfa565b6040516001600160e01b031960e085901b1681526001600160a01b03909216600483015260248201526044016020604051808303816000875af11580156117a2573d6000803e3d6000fd5b505050506040513d601f19601f820116820180604052508101906117c69190612f72565b5060408051608081018252858152828201511515602082019081526060808501516001600160a01b039081169484019485524291840191825260128054600181018255600091909152935160039094027fbb8a6a4669ba250d26cd7a459eca9d215f8307e33aebe50379bc5a3617ec344481019490945591517fbb8a6a4669ba250d26cd7a459eca9d215f8307e33aebe50379bc5a3617ec344584018054955190931661010002610100600160a81b0319911515919091166001600160a81b03199095169490941793909317905590517fbb8a6a4669ba250d26cd7a459eca9d215f8307e33aebe50379bc5a3617ec3446909101555b604080516080810182526000808252602080830182815283850183815260608086018581529701516001600160a01b039081168552600e90935294909220925183559051600183810191909155925160029092018054945190911661010002610100600160a81b0319921515929092166001600160a81b03199094169390931717909155016114fa565b5060006127106007548861195a9190612d4f565b6119649190612d66565b90506000612710600754886119799190612d4f565b6119839190612d66565b60025460405163a9059cbb60e01b815261dead6004820152602481018390529192506001600160a01b03169063a9059cbb906044016020604051808303816000875af11580156119d7573d6000803e3d6000fd5b505050506040513d601f19601f820116820180604052508101906119fb9190612f72565b5060015460405163a9059cbb60e01b815261dead6004820152602481018490526001600160a01b039091169063a9059cbb906044016020604051808303816000875af1158015611a4f573d6000803e3d6000fd5b505050506040513d601f19601f82011682018060405250810190611a739190612f72565b5060115460085460009061271090611a8b908c612d4f565b611a959190612d66565b905060006127106008548b611aaa9190612d4f565b611ab49190612d66565b90506000806000600d600281548110611acf57611acf612c94565b9060005260206000209060040201600201541115611b1b57600d600281548110611afb57611afb612c94565b90600052602060002090600402016002015484611b189190612d66565b91505b6000600d600281548110611b3157611b31612c94565b9060005260206000209060040201600301541115611b7d57600d600281548110611b5d57611b5d612c94565b90600052602060002090600402016003015483611b7a9190612d66565b90505b60005b85811015611dbe57600060118281548110611b9d57611b9d612c94565b60009182526020918290206040805160808101825260039093029091018054835260018101549383019390935260029092015460ff8116158015938301939093526001600160a01b036101009091041660608201529150611c9857600254606082015160208301516001600160a01b039092169163a9059cbb9190611c23908790612cfa565b6040516001600160e01b031960e085901b1681526001600160a01b03909216600483015260248201526044016020604051808303816000875af1158015611c6e573d6000803e3d6000fd5b505050506040513d601f19601f82011682018060405250810190611c929190612f72565b50611d34565b600154606082015160208301516001600160a01b039092169163a9059cbb9190611cc3908890612cfa565b6040516001600160e01b031960e085901b1681526001600160a01b03909216600483015260248201526044016020604051808303816000875af1158015611d0e573d6000803e3d6000fd5b505050506040513d601f19601f82011682018060405250810190611d329190612f72565b505b604080516080810182526000808252602080830182815283850183815260608086018581529701516001600160a01b039081168552600e90935294909220925183559051600183810191909155925160029092018054945190911661010002610100600160a81b0319921515929092166001600160a81b0319909416939093171790915501611b80565b50611dcb600f60006129bc565b611dd7601060006129bc565b611de3601160006129bc565b5050505050505050505050505050505050565b6060600d8281548110611e0b57611e0b612c94565b906000526020600020906004020160000180546107cf90612caa565b611e2f6125a2565b600855565b611e3c6125a2565b611e4660006126e4565b565b60125460609042906000805b82811015611ea957838660128381548110611e7157611e71612c94565b906000526020600020906003020160020154611e8d9190612cfa565b1115611ea15781611e9d81612d0d565b9250505b600101611e54565b5060008167ffffffffffffffff811115611ec557611ec5612d26565b604051908082528060200260200182016040528015611eee578160200160208202803683370190505b50905060005b8381101561099c57848760128381548110611f1157611f11612c94565b906000526020600020906003020160020154611f2d9190612cfa565b1115611f9e5760128181548110611f4657611f46612c94565b906000526020600020906003020160010160019054906101000a90046001600160a01b0316828281518110611f7d57611f7d612c94565b60200260200101906001600160a01b031690816001600160a01b0316815250505b600101611ef4565b611fae6125a2565b600355565b611fbb6125a2565b600655565b600081611ff157600d8381548110611fda57611fda612c94565b906000526020600020906004020160020154612017565b600d838154811061200457612004612c94565b9060005260206000209060040201600301545b90505b92915050565b6120286125a2565b60405133904780156108fc02916000818181858888f19350505050158015612054573d6000803e3d6000fd5b50565b61205f6125a2565b600555565b61206c6125a2565b600755565b6120796125a2565b6001546002546040516370a0823160e01b81523060048201526001600160a01b039283169263a9059cbb9233929116906370a08231906024015b602060405180830381865afa1580156120d0573d6000803e3d6000fd5b505050506040513d601f19601f820116820180604052508101906120f49190612f8f565b6040516001600160e01b031960e085901b1681526001600160a01b03909216600483015260248201526044016020604051808303816000875af115801561213f573d6000803e3d6000fd5b505050506040513d601f19601f820116820180604052508101906120549190612f72565b61216b6125a2565b600280546001600160a01b0319166001600160a01b0392909216919091179055565b6121956125a2565b600b5460ff166121e75760405162461bcd60e51b815260206004820152601b60248201527f43757272656e742065706f636820686173206e6f7420656e64656400000000006044820152606401610a24565b600b805460ff19169055600d80548591859160009061220857612208612c94565b90600052602060002090600402016000019182612226929190612fa8565b508181600d60018154811061223d5761223d612c94565b9060005260206000209060040201600001918261225b929190612fa8565b506000600d60008154811061227257612272612c94565b9060005260206000209060040201600201819055506000600d60018154811061229d5761229d612c94565b9060005260206000209060040201600201819055506000600d6002815481106122c8576122c8612c94565b9060005260206000209060040201600201819055506000600d6000815481106122f3576122f3612c94565b9060005260206000209060040201600301819055506000600d60018154811061231e5761231e612c94565b9060005260206000209060040201600301819055506000600d60028154811061234957612349612c94565b6000918252602090912060036004909202010155505042600c555050565b60125460609042906000805b828110156123c85783866012838154811061239057612390612c94565b9060005260206000209060030201600201546123ac9190612cfa565b11156123c057816123bc81612d0d565b9250505b600101612373565b5060008167ffffffffffffffff8111156123e4576123e4612d26565b60405190808252806020026020018201604052801561240d578160200160208202803683370190505b50905060005b8381101561099c5784876012838154811061243057612430612c94565b90600052602060002090600302016002015461244c9190612cfa565b1115612496576012818154811061246557612465612c94565b90600052602060002090600302016000015482828151811061248957612489612c94565b6020026020010181815250505b600101612413565b600080600c54426124af9190612d3c565b90506004548111806124c35750600b5460ff165b156124d057600291505090565b6003548111156124e257600191505090565b600091505090565b6124f26125a2565b6001600160a01b0381166125575760405162461bcd60e51b815260206004820152602660248201527f4f776e61626c653a206e6577206f776e657220697320746865207a65726f206160448201526564647265737360d01b6064820152608401610a24565b612054816126e4565b6125686125a2565b6002546040516370a0823160e01b81523060048201526001600160a01b039091169063a9059cbb90339083906370a08231906024016120b3565b6000546001600160a01b03163314611e465760405162461bcd60e51b815260206004820181905260248201527f4f776e61626c653a2063616c6c6572206973206e6f7420746865206f776e65726044820152606401610a24565b604080516001600160a01b0385811660248301528416604482015260648082018490528251808303909101815260849091019091526020810180516001600160e01b03166323b872dd60e01b179052612656908590612734565b50505050565b612054816040516024016126709190612a46565b60408051601f198184030181529190526020810180516001600160e01b031663104c13eb60e21b17905261280b565b612054816040516024016126b591815260200190565b60408051601f198184030181529190526020810180516001600160e01b031663f82c50f160e01b17905261280b565b600080546001600160a01b038381166001600160a01b0319831681178455604051919092169283917f8be0079c531659141344cd1fd0a4f28419497f9722a3daafe3b4186f6b6457e09190a35050565b6000612789826040518060400160405280602081526020017f5361666545524332303a206c6f772d6c6576656c2063616c6c206661696c6564815250856001600160a01b031661282c9092919063ffffffff16565b80519091501561280657808060200190518101906127a79190612f72565b6128065760405162461bcd60e51b815260206004820152602a60248201527f5361666545524332303a204552433230206f7065726174696f6e20646964206e6044820152691bdd081cdd58d8d9595960b21b6064820152608401610a24565b505050565b80516a636f6e736f6c652e6c6f67602083016000808483855afa5050505050565b606061283b8484600085612843565b949350505050565b6060824710156128a45760405162461bcd60e51b815260206004820152602660248201527f416464726573733a20696e73756666696369656e742062616c616e636520666f6044820152651c8818d85b1b60d21b6064820152608401610a24565b600080866001600160a01b031685876040516128c09190613062565b60006040518083038185875af1925050503d80600081146128fd576040519150601f19603f3d011682016040523d82523d6000602084013e612902565b606091505b50915091506129138783838761291e565b979650505050505050565b6060831561298d578251600003612986576001600160a01b0385163b6129865760405162461bcd60e51b815260206004820152601d60248201527f416464726573733a2063616c6c20746f206e6f6e2d636f6e74726163740000006044820152606401610a24565b508161283b565b61283b83838151156129a25781518083602001fd5b8060405162461bcd60e51b8152600401610a249190612a46565b508054600082556003029060005260206000209081019061205491905b80821115612a0557600080825560018201556002810180546001600160a81b03191690556003016129d9565b5090565b600060208284031215612a1b57600080fd5b5035919050565b60005b83811015612a3d578181015183820152602001612a25565b50506000910152565b6020815260008251806020840152612a65816040850160208701612a22565b601f01601f19169190910160400192915050565b6020808252825182820181905260009190848201906040850190845b81811015612ab3578351151583529284019291840191600101612a95565b50909695505050505050565b600060208284031215612ad157600080fd5b81356001600160a01b0381168114612ae857600080fd5b9392505050565b801515811461205457600080fd5b600080600060608486031215612b1257600080fd5b83359250602084013591506040840135612b2b81612aef565b809150509250925092565b6020808252825182820181905260009190848201906040850190845b81811015612ab35783516001600160a01b031683529284019291840191600101612b52565b60008060408385031215612b8a57600080fd5b823591506020830135612b9c81612aef565b809150509250929050565b60008083601f840112612bb957600080fd5b50813567ffffffffffffffff811115612bd157600080fd5b602083019150836020828501011115612be957600080fd5b9250929050565b60008060008060408587031215612c0657600080fd5b843567ffffffffffffffff80821115612c1e57600080fd5b612c2a88838901612ba7565b90965094506020870135915080821115612c4357600080fd5b50612c5087828801612ba7565b95989497509550505050565b6020808252825182820181905260009190848201906040850190845b81811015612ab357835183529284019291840191600101612c78565b634e487b7160e01b600052603260045260246000fd5b600181811c90821680612cbe57607f821691505b602082108103612cde57634e487b7160e01b600052602260045260246000fd5b50919050565b634e487b7160e01b600052601160045260246000fd5b8082018082111561201a5761201a612ce4565b600060018201612d1f57612d1f612ce4565b5060010190565b634e487b7160e01b600052604160045260246000fd5b8181038181111561201a5761201a612ce4565b808202811582820484141761201a5761201a612ce4565b600082612d8357634e487b7160e01b600052601260045260246000fd5b500490565b601f82111561280657600081815260208120601f850160051c81016020861015612daf5750805b601f850160051c820191505b81811015612dce57828155600101612dbb565b505050505050565b600019600383901b1c191660019190911b1790565b815167ffffffffffffffff811115612e0557612e05612d26565b612e1981612e138454612caa565b84612d88565b602080601f831160018114612e485760008415612e365750858301515b612e408582612dd6565b865550612dce565b600085815260208120601f198616915b82811015612e7757888601518255948401946001909101908401612e58565b5085821015612e955787850151600019600388901b60f8161c191681555b5050505050600190811b01905550565b818103612eb0575050565b612eba8254612caa565b67ffffffffffffffff811115612ed257612ed2612d26565b612ee081612e138454612caa565b6000601f821160018114612f0e5760008315612efc5750848201545b612f068482612dd6565b855550610fbe565b600085815260209020601f19841690600086815260209020845b83811015612f485782860154825560019586019590910190602001612f28565b5085831015612e955793015460001960f8600387901b161c19169092555050600190811b01905550565b600060208284031215612f8457600080fd5b8151612ae881612aef565b600060208284031215612fa157600080fd5b5051919050565b67ffffffffffffffff831115612fc057612fc0612d26565b612fd483612fce8354612caa565b83612d88565b6000601f8411600181146130025760008515612ff05750838201355b612ffa8682612dd6565b845550610fbe565b600083815260209020601f19861690835b828110156130335786850135825560209485019460019092019101613013565b50868210156130505760001960f88860031b161c19848701351681555b505060018560011b0183555050505050565b60008251613074818460208701612a22565b919091019291505056fea2646970667358221220dd7284770d0d0c4ed755c53cddd2fb9887eb8bb72421aeefde70420d01ebf39964736f6c63430008110033d7b6990105719101dabeb77144f2a3385c8033acd3af97e9423a695e81ad1eb5",
  "linkReferences": {},
  "deployedLinkReferences": {}
}