{
  "_format": "hh-sol-artifact-1",
  "contractName": "PoolMaster",
  "sourceName": "src/backend/contracts/PoolMaster.sol",
  "abi": [
    {
      "inputs": [],
      "stateMutability": "nonpayable",
      "type": "constructor"
    },
    {
      "anonymous": false,
      "inputs": [
        {
          "indexed": false,
          "internalType": "address",
          "name": "user",
          "type": "address"
        },
        {
          "indexed": false,
          "internalType": "uint256",
          "name": "tokenId",
          "type": "uint256"
        },
        {
          "indexed": false,
          "internalType": "bool",
          "name": "isAlpha",
          "type": "bool"
        }
      ],
      "name": "MintSuccessful",
      "type": "event"
    },
    {
      "anonymous": false,
      "inputs": [
        {
          "indexed": true,
          "internalType": "address",
          "name": "previousOwner",
          "type": "address"
        },
        {
          "indexed": true,
          "internalType": "address",
          "name": "newOwner",
          "type": "address"
        }
      ],
      "name": "OwnershipTransferred",
      "type": "event"
    },
    {
      "inputs": [],
      "name": "battlingPhaseDuration",
      "outputs": [
        {
          "internalType": "uint256",
          "name": "",
          "type": "uint256"
        }
      ],
      "stateMutability": "view",
      "type": "function"
    },
    {
      "inputs": [],
      "name": "bettingPhaseDuration",
      "outputs": [
        {
          "internalType": "uint256",
          "name": "",
          "type": "uint256"
        }
      ],
      "stateMutability": "view",
      "type": "function"
    },
    {
      "inputs": [],
      "name": "burnedTokensPercent",
      "outputs": [
        {
          "internalType": "uint256",
          "name": "",
          "type": "uint256"
        }
      ],
      "stateMutability": "view",
      "type": "function"
    },
    {
      "inputs": [
        {
          "internalType": "uint256",
          "name": "_poolWinnerId",
          "type": "uint256"
        }
      ],
      "name": "endEpoch",
      "outputs": [],
      "stateMutability": "nonpayable",
      "type": "function"
    },
    {
      "inputs": [],
      "name": "epochEnded",
      "outputs": [
        {
          "internalType": "bool",
          "name": "",
          "type": "bool"
        }
      ],
      "stateMutability": "view",
      "type": "function"
    },
    {
      "inputs": [
        {
          "internalType": "address",
          "name": "_user",
          "type": "address"
        }
      ],
      "name": "getIsUsdcForAddress",
      "outputs": [
        {
          "internalType": "bool",
          "name": "",
          "type": "bool"
        }
      ],
      "stateMutability": "view",
      "type": "function"
    },
    {
      "inputs": [
        {
          "internalType": "uint256",
          "name": "_poolId",
          "type": "uint256"
        }
      ],
      "name": "getLastWinner",
      "outputs": [
        {
          "internalType": "address",
          "name": "",
          "type": "address"
        }
      ],
      "stateMutability": "view",
      "type": "function"
    },
    {
      "inputs": [],
      "name": "getPhase",
      "outputs": [
        {
          "internalType": "uint256",
          "name": "",
          "type": "uint256"
        }
      ],
      "stateMutability": "view",
      "type": "function"
    },
    {
      "inputs": [
        {
          "internalType": "address",
          "name": "_user",
          "type": "address"
        }
      ],
      "name": "getPoolIdForAddress",
      "outputs": [
        {
          "internalType": "uint256",
          "name": "",
          "type": "uint256"
        }
      ],
      "stateMutability": "view",
      "type": "function"
    },
    {
      "inputs": [
        {
          "internalType": "uint256",
          "name": "_poolId",
          "type": "uint256"
        },
        {
          "internalType": "bool",
          "name": "_isUsdc",
          "type": "bool"
        }
      ],
      "name": "getStakedTokens",
      "outputs": [
        {
          "internalType": "uint256",
          "name": "",
          "type": "uint256"
        }
      ],
      "stateMutability": "view",
      "type": "function"
    },
    {
      "inputs": [
        {
          "internalType": "address",
          "name": "_user",
          "type": "address"
        }
      ],
      "name": "getStakedTokensForAddress",
      "outputs": [
        {
          "internalType": "uint256",
          "name": "",
          "type": "uint256"
        }
      ],
      "stateMutability": "view",
      "type": "function"
    },
    {
      "inputs": [
        {
          "internalType": "uint256",
          "name": "_poolId",
          "type": "uint256"
        }
      ],
      "name": "getSymbol",
      "outputs": [
        {
          "internalType": "string",
          "name": "",
          "type": "string"
        }
      ],
      "stateMutability": "view",
      "type": "function"
    },
    {
      "inputs": [
        {
          "internalType": "uint256",
          "name": "_poolId",
          "type": "uint256"
        }
      ],
      "name": "getToken",
      "outputs": [
        {
          "internalType": "address",
          "name": "",
          "type": "address"
        }
      ],
      "stateMutability": "view",
      "type": "function"
    },
    {
      "inputs": [
        {
          "internalType": "uint256",
          "name": "_lastSeconds",
          "type": "uint256"
        }
      ],
      "name": "getWinnerAddressAmountsForLastSeconds",
      "outputs": [
        {
          "internalType": "uint256[]",
          "name": "",
          "type": "uint256[]"
        }
      ],
      "stateMutability": "view",
      "type": "function"
    },
    {
      "inputs": [
        {
          "internalType": "uint256",
          "name": "_lastSeconds",
          "type": "uint256"
        }
      ],
      "name": "getWinnerAddressIsUsdcForLastSeconds",
      "outputs": [
        {
          "internalType": "bool[]",
          "name": "",
          "type": "bool[]"
        }
      ],
      "stateMutability": "view",
      "type": "function"
    },
    {
      "inputs": [
        {
          "internalType": "uint256",
          "name": "_lastSeconds",
          "type": "uint256"
        }
      ],
      "name": "getWinnerAddressStakerAddressForLastSeconds",
      "outputs": [
        {
          "internalType": "address[]",
          "name": "",
          "type": "address[]"
        }
      ],
      "stateMutability": "view",
      "type": "function"
    },
    {
      "inputs": [],
      "name": "loserTokensPercent",
      "outputs": [
        {
          "internalType": "uint256",
          "name": "",
          "type": "uint256"
        }
      ],
      "stateMutability": "view",
      "type": "function"
    },
    {
      "inputs": [],
      "name": "owner",
      "outputs": [
        {
          "internalType": "address",
          "name": "",
          "type": "address"
        }
      ],
      "stateMutability": "view",
      "type": "function"
    },
    {
      "inputs": [],
      "name": "pool3TokensPercent",
      "outputs": [
        {
          "internalType": "uint256",
          "name": "",
          "type": "uint256"
        }
      ],
      "stateMutability": "view",
      "type": "function"
    },
    {
      "inputs": [],
      "name": "renounceOwnership",
      "outputs": [],
      "stateMutability": "nonpayable",
      "type": "function"
    },
    {
      "inputs": [
        {
          "internalType": "uint256",
          "name": "_battlingPhaseDuration",
          "type": "uint256"
        }
      ],
      "name": "setBattlingPhaseDuration",
      "outputs": [],
      "stateMutability": "nonpayable",
      "type": "function"
    },
    {
      "inputs": [
        {
          "internalType": "uint256",
          "name": "_bettingPhaseDuration",
          "type": "uint256"
        }
      ],
      "name": "setBettingPhaseDuration",
      "outputs": [],
      "stateMutability": "nonpayable",
      "type": "function"
    },
    {
      "inputs": [
        {
          "internalType": "uint256",
          "name": "_burnedTokensPercent",
          "type": "uint256"
        }
      ],
      "name": "setBurnedTokensPercent",
      "outputs": [],
      "stateMutability": "nonpayable",
      "type": "function"
    },
    {
      "inputs": [
        {
          "internalType": "uint256",
          "name": "_loserTokensPercent",
          "type": "uint256"
        }
      ],
      "name": "setLoserTokensPercent",
      "outputs": [],
      "stateMutability": "nonpayable",
      "type": "function"
    },
    {
      "inputs": [
        {
          "internalType": "uint256",
          "name": "_pool3TokensPercent",
          "type": "uint256"
        }
      ],
      "name": "setPool3TokensPercent",
      "outputs": [],
      "stateMutability": "nonpayable",
      "type": "function"
    },
    {
      "inputs": [
        {
          "internalType": "address",
          "name": "_tokenAddress",
          "type": "address"
        }
      ],
      "name": "setTokenAddress",
      "outputs": [],
      "stateMutability": "nonpayable",
      "type": "function"
    },
    {
      "inputs": [
        {
          "internalType": "uint256",
          "name": "_unstakeFee",
          "type": "uint256"
        }
      ],
      "name": "setUnstakeFee",
      "outputs": [],
      "stateMutability": "nonpayable",
      "type": "function"
    },
    {
      "inputs": [
        {
          "internalType": "address",
          "name": "_usdcAddress",
          "type": "address"
        }
      ],
      "name": "setUsdcAddress",
      "outputs": [],
      "stateMutability": "nonpayable",
      "type": "function"
    },
    {
      "inputs": [
        {
          "internalType": "uint256",
          "name": "_usdcStakeFee",
          "type": "uint256"
        }
      ],
      "name": "setUsdcStakeFee",
      "outputs": [],
      "stateMutability": "nonpayable",
      "type": "function"
    },
    {
      "inputs": [
        {
          "internalType": "uint256",
          "name": "_winnerTokensPercent",
          "type": "uint256"
        }
      ],
      "name": "setWinnerTokensPercent",
      "outputs": [],
      "stateMutability": "nonpayable",
      "type": "function"
    },
    {
      "inputs": [
        {
          "internalType": "uint256",
          "name": "_poolId",
          "type": "uint256"
        },
        {
          "internalType": "uint256",
          "name": "_amount",
          "type": "uint256"
        },
        {
          "internalType": "bool",
          "name": "_isUsdc",
          "type": "bool"
        }
      ],
      "name": "stake",
      "outputs": [],
      "stateMutability": "payable",
      "type": "function"
    },
    {
      "inputs": [
        {
          "internalType": "address",
          "name": "_token1",
          "type": "address"
        },
        {
          "internalType": "address",
          "name": "_token2",
          "type": "address"
        },
        {
          "internalType": "string",
          "name": "_symbol1",
          "type": "string"
        },
        {
          "internalType": "string",
          "name": "_symbol2",
          "type": "string"
        }
      ],
      "name": "startEpoch",
      "outputs": [],
      "stateMutability": "nonpayable",
      "type": "function"
    },
    {
      "inputs": [],
      "name": "timestampStartEpoch",
      "outputs": [
        {
          "internalType": "uint256",
          "name": "",
          "type": "uint256"
        }
      ],
      "stateMutability": "view",
      "type": "function"
    },
    {
      "inputs": [],
      "name": "token",
      "outputs": [
        {
          "internalType": "contract IERC20",
          "name": "",
          "type": "address"
        }
      ],
      "stateMutability": "view",
      "type": "function"
    },
    {
      "inputs": [
        {
          "internalType": "address",
          "name": "newOwner",
          "type": "address"
        }
      ],
      "name": "transferOwnership",
      "outputs": [],
      "stateMutability": "nonpayable",
      "type": "function"
    },
    {
      "inputs": [],
      "name": "unstakeFee",
      "outputs": [
        {
          "internalType": "uint256",
          "name": "",
          "type": "uint256"
        }
      ],
      "stateMutability": "view",
      "type": "function"
    },
    {
      "inputs": [],
      "name": "usdc",
      "outputs": [
        {
          "internalType": "contract IERC20",
          "name": "",
          "type": "address"
        }
      ],
      "stateMutability": "view",
      "type": "function"
    },
    {
      "inputs": [],
      "name": "usdcStakeFee",
      "outputs": [
        {
          "internalType": "uint256",
          "name": "",
          "type": "uint256"
        }
      ],
      "stateMutability": "view",
      "type": "function"
    },
    {
      "inputs": [],
      "name": "winnerTokensPercent",
      "outputs": [
        {
          "internalType": "uint256",
          "name": "",
          "type": "uint256"
        }
      ],
      "stateMutability": "view",
      "type": "function"
    },
    {
      "inputs": [],
      "name": "withdrawEth",
      "outputs": [],
      "stateMutability": "nonpayable",
      "type": "function"
    },
    {
      "inputs": [],
      "name": "withdrawToken",
      "outputs": [],
      "stateMutability": "nonpayable",
      "type": "function"
    },
    {
      "inputs": [],
      "name": "withdrawUsdc",
      "outputs": [],
      "stateMutability": "nonpayable",
      "type": "function"
    }
  ],
  "bytecode": "0x6080604052617080600355620151806004556104e2600555611f4060065561019060075561064060085560c86009556064600a55600b805460ff191660011790553480156200004d57600080fd5b506200005933620002c6565b6040805160a081018252600080825282516020808201855282825283019081529282018190526060820181905260808201819052600d8054600181018255915281516000805160206200350e833981519152600590920291820180546001600160a01b0319166001600160a01b0390921691909117815592519192916000805160206200352e83398151915290910190620000f59082620003bb565b506040828101516002830180546001600160a01b03199081166001600160a01b03938416179091556060808601516003860155608095860151600490950194909455825160a08101845260008082528451602081810187528282528301908152948201819052948101859052948501849052600d8054600181018255945284516000805160206200350e833981519152600590950294850180549092169216919091178155905190916000805160206200352e8339815191520190620001bc9082620003bb565b506040828101516002830180546001600160a01b03199081166001600160a01b03938416179091556060808601516003860155608095860151600490950194909455825160a08101845260008082528451602081810187528282528301908152948201819052948101859052948501849052600d8054600181018255945284516000805160206200350e833981519152600590950294850180549092169216919091178155905190916000805160206200352e8339815191520190620002839082620003bb565b5060408201516002820180546001600160a01b0319166001600160a01b039092169190911790556060820151600382015560809091015160049091015562000487565b600080546001600160a01b038381166001600160a01b0319831681178455604051919092169283917f8be0079c531659141344cd1fd0a4f28419497f9722a3daafe3b4186f6b6457e09190a35050565b634e487b7160e01b600052604160045260246000fd5b600181811c908216806200034157607f821691505b6020821081036200036257634e487b7160e01b600052602260045260246000fd5b50919050565b601f821115620003b657600081815260208120601f850160051c81016020861015620003915750805b601f850160051c820191505b81811015620003b2578281556001016200039d565b5050505b505050565b81516001600160401b03811115620003d757620003d762000316565b620003ef81620003e884546200032c565b8462000368565b602080601f8311600181146200042757600084156200040e5750858301515b600019600386901b1c1916600185901b178555620003b2565b600085815260208120601f198616915b82811015620004585788860151825594840194600190910190840162000437565b5085821015620004775787850151600019600388901b60f8161c191681555b5050505050600190811b01905550565b61307780620004976000396000f3fe6080604052600436106102505760003560e01c80638da5cb5b11610139578063bc770d06116100b6578063dc08e7691161007a578063dc08e769146106f4578063e4b50cb814610721578063eced028014610741578063f2fde38b14610756578063fc0c546a14610776578063fee84d4e1461079657600080fd5b8063bc770d0614610650578063ca628c7814610670578063d38bcdee14610685578063d459a418146106a5578063d8e660ed146106bb57600080fd5b80639a1dee2b116100fd5780639a1dee2b146105d95780639ee664b6146105ef578063a0ef91df14610605578063ae3e04b11461061a578063ba2f303b1461063a57600080fd5b80638da5cb5b146105395780638ea97d2614610557578063949240d41461056d578063989e92991461058d57806398c44b7d146105a357600080fd5b806352916f25116101d25780636418413c116101965780636418413c1461046a57806364cc37fb14610497578063715018a6146104b75780637d8704b1146104cc5780638301151c146104f95780638bbbbbde1461051957600080fd5b806352916f25146103c5578063561b2463146103e55780635a8b9599146103f85780635cdef57d146104345780636164e45d1461044a57600080fd5b80631f5c735b116102195780631f5c735b1461032b57806325b511bd1461034f57806326a4e8d2146103655780632f53ffe1146103855780633e413bee146103a557600080fd5b806218a1161461025557806307ed92d01461027757806316ea2c5714610297578063175db3c4146102d45780631d1c7fab146102fe575b600080fd5b34801561026157600080fd5b50610275610270366004612b2f565b6107ab565b005b34801561028357600080fd5b50610275610292366004612b2f565b6107b8565b3480156102a357600080fd5b506102b76102b2366004612b2f565b6107c5565b6040516001600160a01b0390911681526020015b60405180910390f35b3480156102e057600080fd5b50600b546102ee9060ff1681565b60405190151581526020016102cb565b34801561030a57600080fd5b5061031e610319366004612b2f565b6107fd565b6040516102cb9190612b48565b34801561033757600080fd5b5061034160055481565b6040519081526020016102cb565b34801561035b57600080fd5b5061034160045481565b34801561037157600080fd5b50610275610380366004612baa565b61094f565b34801561039157600080fd5b506102756103a0366004612c0e565b610979565b3480156103b157600080fd5b506002546102b7906001600160a01b031681565b3480156103d157600080fd5b506102756103e0366004612b2f565b610bee565b6102756103f3366004612cad565b610bfb565b34801561040457600080fd5b506102ee610413366004612baa565b6001600160a01b03166000908152600e602052604090206002015460ff1690565b34801561044057600080fd5b5061034160085481565b34801561045657600080fd5b50610275610465366004612b2f565b6111de565b34801561047657600080fd5b5061048a610485366004612b2f565b61203c565b6040516102cb9190612d0a565b3480156104a357600080fd5b506102756104b2366004612b2f565b6120f2565b3480156104c357600080fd5b506102756120ff565b3480156104d857600080fd5b506104ec6104e7366004612b2f565b612113565b6040516102cb9190612d3d565b34801561050557600080fd5b50610275610514366004612b2f565b612271565b34801561052557600080fd5b50610275610534366004612b2f565b61227e565b34801561054557600080fd5b506000546001600160a01b03166102b7565b34801561056357600080fd5b5061034160095481565b34801561057957600080fd5b50610341610588366004612d7e565b61228b565b34801561059957600080fd5b5061034160035481565b3480156105af57600080fd5b506103416105be366004612baa565b6001600160a01b03166000908152600e602052604090205490565b3480156105e557600080fd5b50610341600c5481565b3480156105fb57600080fd5b5061034160065481565b34801561061157600080fd5b506102756122eb565b34801561062657600080fd5b50610275610635366004612b2f565b612322565b34801561064657600080fd5b5061034160075481565b34801561065c57600080fd5b5061027561066b366004612b2f565b61232f565b34801561067c57600080fd5b5061027561233c565b34801561069157600080fd5b506102756106a0366004612baa565b61242e565b3480156106b157600080fd5b50610341600a5481565b3480156106c757600080fd5b506103416106d6366004612baa565b6001600160a01b03166000908152600e602052604090206001015490565b34801561070057600080fd5b5061071461070f366004612b2f565b612458565b6040516102cb9190612dae565b34801561072d57600080fd5b506102b761073c366004612b2f565b61258f565b34801561074d57600080fd5b506103416125c4565b34801561076257600080fd5b50610275610771366004612baa565b612610565b34801561078257600080fd5b506001546102b7906001600160a01b031681565b3480156107a257600080fd5b50610275612686565b6107b36126c8565b600955565b6107c06126c8565b600455565b6000600d82815481106107da576107da612de6565b60009182526020909120600260059092020101546001600160a01b031692915050565b60125460609042906000805b8281101561085e5783866012838154811061082657610826612de6565b9060005260206000209060030201600201546108429190612e12565b1115610856578161085281612e25565b9250505b600101610809565b5060008167ffffffffffffffff81111561087a5761087a612e3e565b6040519080825280602002602001820160405280156108a3578160200160208202803683370190505b50905060005b83811015610945578487601283815481106108c6576108c6612de6565b9060005260206000209060030201600201546108e29190612e12565b111561093d57601281815481106108fb576108fb612de6565b906000526020600020906003020160010160009054906101000a900460ff1682828151811061092c5761092c612de6565b911515602092830291909101909101525b6001016108a9565b5095945050505050565b6109576126c8565b600180546001600160a01b0319166001600160a01b0392909216919091179055565b6109816126c8565b600b5460ff166109d85760405162461bcd60e51b815260206004820152601b60248201527f43757272656e742065706f636820686173206e6f7420656e646564000000000060448201526064015b60405180910390fd5b600b805460ff19169055600d80548791906000906109f8576109f8612de6565b906000526020600020906005020160000160006101000a8154816001600160a01b0302191690836001600160a01b0316021790555084600d600181548110610a4257610a42612de6565b906000526020600020906005020160000160006101000a8154816001600160a01b0302191690836001600160a01b031602179055508383600d600081548110610a8d57610a8d612de6565b90600052602060002090600502016001019182610aab929190612edc565b508181600d600181548110610ac257610ac2612de6565b90600052602060002090600502016001019182610ae0929190612edc565b506000600d600081548110610af757610af7612de6565b9060005260206000209060050201600301819055506000600d600181548110610b2257610b22612de6565b9060005260206000209060050201600301819055506000600d600281548110610b4d57610b4d612de6565b9060005260206000209060050201600301819055506000600d600081548110610b7857610b78612de6565b9060005260206000209060050201600401819055506000600d600181548110610ba357610ba3612de6565b9060005260206000209060050201600401819055506000600d600281548110610bce57610bce612de6565b6000918252602090912060046005909202010155505042600c5550505050565b610bf66126c8565b600a55565b600b5460ff1615610c465760405162461bcd60e51b8152602060048201526015602482015274115c1bd8da081b9bdd081cdd185c9d1959081e595d605a1b60448201526064016109cf565b610c4e6125c4565b15610c9b5760405162461bcd60e51b815260206004820152601860248201527f42657474696e672070686173652068617320656e6465642e000000000000000060448201526064016109cf565b6002831115610cde5760405162461bcd60e51b815260206004820152600f60248201526e125b9d985b1a59081c1bdbdb081259608a1b60448201526064016109cf565b336000908152600e602052604090206002015461010090046001600160a01b031615610d575760405162461bcd60e51b815260206004820152602260248201527f5573657220616c7265616479207374616b656420666f7220746869732065706f6044820152610c6d60f31b60648201526084016109cf565b818115610de8576001841115610da15760405162461bcd60e51b815260206004820152600f60248201526e125b9d985b1a59081c1bdbdb081259608a1b60448201526064016109cf565b612710600a54612710610db49190612f9c565b610dbe9085612faf565b610dc89190612fc6565b600254909150610de3906001600160a01b0316333086612722565b610e00565b600154610e00906001600160a01b0316333086612722565b60008111610e505760405162461bcd60e51b815260206004820152601d60248201527f4d757374207374616b65206d6f7265207468616e203020746f6b656e7300000060448201526064016109cf565b60408051608081018252858152602080820184815285151583850190815233606085018181526000918252600e90945294909420835181559051600182015592516002909301805491516001600160a81b0319909216931515610100600160a81b031916939093176101006001600160a01b03909216919091021790915582610ed95783610edc565b60005b600d8681548110610eef57610eef612de6565b90600052602060002090600502016003016000828254610f0f9190612e12565b90915550839050610f21576000610f23565b835b600d8681548110610f3657610f36612de6565b90600052602060002090600502016004016000828254610f569190612e12565b9091555050600085900361103157600f8054600181018255600091909152815160039091027f8d1108e10bcb7c27dddfc02ed9d693a074039d026cf4ea4240b40f7d581ac80281019190915560208201517f8d1108e10bcb7c27dddfc02ed9d693a074039d026cf4ea4240b40f7d581ac80382015560408201517f8d1108e10bcb7c27dddfc02ed9d693a074039d026cf4ea4240b40f7d581ac804909101805460608401516001600160a01b031661010002610100600160a81b0319931515939093166001600160a81b0319909116179190911790556111d7565b846001036111065760108054600181018255600091909152815160039091027f1b6847dc741a1b0cd08d278845f9d819d87b734759afb55fe2de5cb82a9ae67281019190915560208201517f1b6847dc741a1b0cd08d278845f9d819d87b734759afb55fe2de5cb82a9ae67382015560408201517f1b6847dc741a1b0cd08d278845f9d819d87b734759afb55fe2de5cb82a9ae674909101805460608401516001600160a01b031661010002610100600160a81b0319931515939093166001600160a81b0319909116179190911790556111d7565b846002036111d75760118054600181018255600091909152815160039091027f31ecc21a745e3968a04e9570e4425bc18fa8019c68028196b546d1669c200c6881019190915560208201517f31ecc21a745e3968a04e9570e4425bc18fa8019c68028196b546d1669c200c6982015560408201517f31ecc21a745e3968a04e9570e4425bc18fa8019c68028196b546d1669c200c6a909101805460608401516001600160a01b031661010002610100600160a81b0319931515939093166001600160a81b0319909116179190911790555b5050505050565b6111e66126c8565b600b5460ff16156112395760405162461bcd60e51b815260206004820152601b60248201527f43757272656e742065706f636820616c726561647920656e646564000000000060448201526064016109cf565b600b805460ff19166001908117909155600090611257908390612f9c565b9050600081156112695760105461126d565b600f545b90506000831561127f57601054611283565b600f545b90506000600d848154811061129a5761129a612de6565b906000526020600020906005020160020160006101000a8154816001600160a01b0302191690836001600160a01b03160217905550600d84815481106112e2576112e2612de6565b6000918252602090912060059091020154600d80546001600160a01b03909216918690811061131357611313612de6565b906000526020600020906005020160020160006101000a8154816001600160a01b0302191690836001600160a01b0316021790555060008060005b8481101561163b5760008615611384576010828154811061137157611371612de6565b90600052602060002090600302016113a6565b600f828154811061139757611397612de6565b90600052602060002090600302015b604080516080810182528254815260018301546020820181905260029093015460ff81161515928201929092526101009091046001600160a01b03166060820152600554909250600091612710916113fd91612faf565b6114079190612fc6565b9050600081836020015161141b9190612f9c565b905061144d6040518060400160405280600f81526020016e17dd5cd95c931bdcd9505b5bdd5b9d608a1b815250612782565b611456826127c5565b6114866040518060400160405280600f81526020016e17dd5cd95c92d9595c105b5bdd5b9d608a1b815250612782565b61148f816127c5565b82604001511561152657600254606084015160405163a9059cbb60e01b81526001600160a01b0391821660048201526024810184905291169063a9059cbb906044016020604051808303816000875af11580156114f0573d6000803e3d6000fd5b505050506040513d601f19601f820116820180604052508101906115149190612fe8565b5061151f8286612e12565b94506115af565b600154606084015160405163a9059cbb60e01b81526001600160a01b0391821660048201526024810184905291169063a9059cbb906044016020604051808303816000875af115801561157d573d6000803e3d6000fd5b505050506040513d601f19601f820116820180604052508101906115a19190612fe8565b506115ac8287612e12565b95505b5050604080516080810182526000808252602080830182815283850183815260608086018581529701516001600160a01b039081168552600e90935294909220925183559051600183810191909155925160029092018054945190911661010002610100600160a81b0319921515929092166001600160a81b031990941693909317179091550161134e565b5060006127106006548461164f9190612faf565b6116599190612fc6565b905060006127106006548461166e9190612faf565b6116789190612fc6565b90506000806000600d8b8154811061169257611692612de6565b90600052602060002090600502016003015411156116dd57600d8a815481106116bd576116bd612de6565b906000526020600020906005020160030154846116da9190612fc6565b91505b6000600d8b815481106116f2576116f2612de6565b906000526020600020906005020160040154111561173d57600d8a8154811061171d5761171d612de6565b9060005260206000209060050201600401548361173a9190612fc6565b90505b60005b87811015611b8c5760008b15611776576010828154811061176357611763612de6565b9060005260206000209060030201611798565b600f828154811061178957611789612de6565b90600052602060002090600302015b60408051608081018252825481526001830154602082015260029092015460ff81161580159284019290925261010090046001600160a01b0316606083015290915061197257600254606082015160208301516001600160a01b039092169163a9059cbb9190611809908790612e12565b6040516001600160e01b031960e085901b1681526001600160a01b03909216600483015260248201526044016020604051808303816000875af1158015611854573d6000803e3d6000fd5b505050506040513d601f19601f820116820180604052508101906118789190612fe8565b5060408051608081018252848152828201511515602082019081526060808501516001600160a01b039081169484019485524291840191825260128054600181018255600091909152935160039094027fbb8a6a4669ba250d26cd7a459eca9d215f8307e33aebe50379bc5a3617ec344481019490945591517fbb8a6a4669ba250d26cd7a459eca9d215f8307e33aebe50379bc5a3617ec344584018054955190931661010002610100600160a81b0319911515919091166001600160a81b03199095169490941793909317905590517fbb8a6a4669ba250d26cd7a459eca9d215f8307e33aebe50379bc5a3617ec344690910155611b02565b600154606082015160208301516001600160a01b039092169163a9059cbb919061199d908890612e12565b6040516001600160e01b031960e085901b1681526001600160a01b03909216600483015260248201526044016020604051808303816000875af11580156119e8573d6000803e3d6000fd5b505050506040513d601f19601f82011682018060405250810190611a0c9190612fe8565b5060408051608081018252858152828201511515602082019081526060808501516001600160a01b039081169484019485524291840191825260128054600181018255600091909152935160039094027fbb8a6a4669ba250d26cd7a459eca9d215f8307e33aebe50379bc5a3617ec344481019490945591517fbb8a6a4669ba250d26cd7a459eca9d215f8307e33aebe50379bc5a3617ec344584018054955190931661010002610100600160a81b0319911515919091166001600160a81b03199095169490941793909317905590517fbb8a6a4669ba250d26cd7a459eca9d215f8307e33aebe50379bc5a3617ec3446909101555b604080516080810182526000808252602080830182815283850183815260608086018581529701516001600160a01b039081168552600e90935294909220925183559051600183810191909155925160029092018054945190911661010002610100600160a81b0319921515929092166001600160a81b0319909416939093171790915501611740565b50600061271060075488611ba09190612faf565b611baa9190612fc6565b9050600061271060075488611bbf9190612faf565b611bc99190612fc6565b60025460405163a9059cbb60e01b815261dead6004820152602481018390529192506001600160a01b03169063a9059cbb906044016020604051808303816000875af1158015611c1d573d6000803e3d6000fd5b505050506040513d601f19601f82011682018060405250810190611c419190612fe8565b5060015460405163a9059cbb60e01b815261dead6004820152602481018490526001600160a01b039091169063a9059cbb906044016020604051808303816000875af1158015611c95573d6000803e3d6000fd5b505050506040513d601f19601f82011682018060405250810190611cb99190612fe8565b5060115460085460009061271090611cd1908c612faf565b611cdb9190612fc6565b905060006127106008548b611cf09190612faf565b611cfa9190612fc6565b90506000806000600d600281548110611d1557611d15612de6565b9060005260206000209060050201600301541115611d6157600d600281548110611d4157611d41612de6565b90600052602060002090600502016003015484611d5e9190612fc6565b91505b6000600d600281548110611d7757611d77612de6565b9060005260206000209060050201600401541115611dc357600d600281548110611da357611da3612de6565b90600052602060002090600502016004015483611dc09190612fc6565b90505b60005b8581101561200457600060118281548110611de357611de3612de6565b60009182526020918290206040805160808101825260039093029091018054835260018101549383019390935260029092015460ff8116158015938301939093526001600160a01b036101009091041660608201529150611ede57600254606082015160208301516001600160a01b039092169163a9059cbb9190611e69908790612e12565b6040516001600160e01b031960e085901b1681526001600160a01b03909216600483015260248201526044016020604051808303816000875af1158015611eb4573d6000803e3d6000fd5b505050506040513d601f19601f82011682018060405250810190611ed89190612fe8565b50611f7a565b600154606082015160208301516001600160a01b039092169163a9059cbb9190611f09908890612e12565b6040516001600160e01b031960e085901b1681526001600160a01b03909216600483015260248201526044016020604051808303816000875af1158015611f54573d6000803e3d6000fd5b505050506040513d601f19601f82011682018060405250810190611f789190612fe8565b505b604080516080810182526000808252602080830182815283850183815260608086018581529701516001600160a01b039081168552600e90935294909220925183559051600183810191909155925160029092018054945190911661010002610100600160a81b0319921515929092166001600160a81b0319909416939093171790915501611dc6565b50612011600f6000612ae2565b61201d60106000612ae2565b61202960116000612ae2565b5050505050505050505050505050505050565b6060600d828154811061205157612051612de6565b9060005260206000209060050201600101805461206d90612e54565b80601f016020809104026020016040519081016040528092919081815260200182805461209990612e54565b80156120e65780601f106120bb576101008083540402835291602001916120e6565b820191906000526020600020905b8154815290600101906020018083116120c957829003601f168201915b50505050509050919050565b6120fa6126c8565b600855565b6121076126c8565b612111600061280a565b565b60125460609042906000805b828110156121745783866012838154811061213c5761213c612de6565b9060005260206000209060030201600201546121589190612e12565b111561216c578161216881612e25565b9250505b60010161211f565b5060008167ffffffffffffffff81111561219057612190612e3e565b6040519080825280602002602001820160405280156121b9578160200160208202803683370190505b50905060005b83811015610945578487601283815481106121dc576121dc612de6565b9060005260206000209060030201600201546121f89190612e12565b1115612269576012818154811061221157612211612de6565b906000526020600020906003020160010160019054906101000a90046001600160a01b031682828151811061224857612248612de6565b60200260200101906001600160a01b031690816001600160a01b0316815250505b6001016121bf565b6122796126c8565b600355565b6122866126c8565b600655565b6000816122bc57600d83815481106122a5576122a5612de6565b9060005260206000209060050201600301546122e2565b600d83815481106122cf576122cf612de6565b9060005260206000209060050201600401545b90505b92915050565b6122f36126c8565b60405133904780156108fc02916000818181858888f1935050505015801561231f573d6000803e3d6000fd5b50565b61232a6126c8565b600555565b6123376126c8565b600755565b6123446126c8565b6001546002546040516370a0823160e01b81523060048201526001600160a01b039283169263a9059cbb9233929116906370a08231906024015b602060405180830381865afa15801561239b573d6000803e3d6000fd5b505050506040513d601f19601f820116820180604052508101906123bf919061300c565b6040516001600160e01b031960e085901b1681526001600160a01b03909216600483015260248201526044016020604051808303816000875af115801561240a573d6000803e3d6000fd5b505050506040513d601f19601f8201168201806040525081019061231f9190612fe8565b6124366126c8565b600280546001600160a01b0319166001600160a01b0392909216919091179055565b60125460609042906000805b828110156124b95783866012838154811061248157612481612de6565b90600052602060002090600302016002015461249d9190612e12565b11156124b157816124ad81612e25565b9250505b600101612464565b5060008167ffffffffffffffff8111156124d5576124d5612e3e565b6040519080825280602002602001820160405280156124fe578160200160208202803683370190505b50905060005b838110156109455784876012838154811061252157612521612de6565b90600052602060002090600302016002015461253d9190612e12565b1115612587576012818154811061255657612556612de6565b90600052602060002090600302016000015482828151811061257a5761257a612de6565b6020026020010181815250505b600101612504565b6000600d82815481106125a4576125a4612de6565b60009182526020909120600590910201546001600160a01b031692915050565b600080600c54426125d59190612f9c565b90506004548111806125e95750600b5460ff165b156125f657600291505090565b60035481111561260857600191505090565b600091505090565b6126186126c8565b6001600160a01b03811661267d5760405162461bcd60e51b815260206004820152602660248201527f4f776e61626c653a206e6577206f776e657220697320746865207a65726f206160448201526564647265737360d01b60648201526084016109cf565b61231f8161280a565b61268e6126c8565b6002546040516370a0823160e01b81523060048201526001600160a01b039091169063a9059cbb90339083906370a082319060240161237e565b6000546001600160a01b031633146121115760405162461bcd60e51b815260206004820181905260248201527f4f776e61626c653a2063616c6c6572206973206e6f7420746865206f776e657260448201526064016109cf565b604080516001600160a01b0385811660248301528416604482015260648082018490528251808303909101815260849091019091526020810180516001600160e01b03166323b872dd60e01b17905261277c90859061285a565b50505050565b61231f816040516024016127969190612d0a565b60408051601f198184030181529190526020810180516001600160e01b031663104c13eb60e21b179052612931565b61231f816040516024016127db91815260200190565b60408051601f198184030181529190526020810180516001600160e01b031663f82c50f160e01b179052612931565b600080546001600160a01b038381166001600160a01b0319831681178455604051919092169283917f8be0079c531659141344cd1fd0a4f28419497f9722a3daafe3b4186f6b6457e09190a35050565b60006128af826040518060400160405280602081526020017f5361666545524332303a206c6f772d6c6576656c2063616c6c206661696c6564815250856001600160a01b03166129529092919063ffffffff16565b80519091501561292c57808060200190518101906128cd9190612fe8565b61292c5760405162461bcd60e51b815260206004820152602a60248201527f5361666545524332303a204552433230206f7065726174696f6e20646964206e6044820152691bdd081cdd58d8d9595960b21b60648201526084016109cf565b505050565b80516a636f6e736f6c652e6c6f67602083016000808483855afa5050505050565b60606129618484600085612969565b949350505050565b6060824710156129ca5760405162461bcd60e51b815260206004820152602660248201527f416464726573733a20696e73756666696369656e742062616c616e636520666f6044820152651c8818d85b1b60d21b60648201526084016109cf565b600080866001600160a01b031685876040516129e69190613025565b60006040518083038185875af1925050503d8060008114612a23576040519150601f19603f3d011682016040523d82523d6000602084013e612a28565b606091505b5091509150612a3987838387612a44565b979650505050505050565b60608315612ab3578251600003612aac576001600160a01b0385163b612aac5760405162461bcd60e51b815260206004820152601d60248201527f416464726573733a2063616c6c20746f206e6f6e2d636f6e747261637400000060448201526064016109cf565b5081612961565b6129618383815115612ac85781518083602001fd5b8060405162461bcd60e51b81526004016109cf9190612d0a565b508054600082556003029060005260206000209081019061231f91905b80821115612b2b57600080825560018201556002810180546001600160a81b0319169055600301612aff565b5090565b600060208284031215612b4157600080fd5b5035919050565b6020808252825182820181905260009190848201906040850190845b81811015612b82578351151583529284019291840191600101612b64565b50909695505050505050565b80356001600160a01b0381168114612ba557600080fd5b919050565b600060208284031215612bbc57600080fd5b6122e282612b8e565b60008083601f840112612bd757600080fd5b50813567ffffffffffffffff811115612bef57600080fd5b602083019150836020828501011115612c0757600080fd5b9250929050565b60008060008060008060808789031215612c2757600080fd5b612c3087612b8e565b9550612c3e60208801612b8e565b9450604087013567ffffffffffffffff80821115612c5b57600080fd5b612c678a838b01612bc5565b90965094506060890135915080821115612c8057600080fd5b50612c8d89828a01612bc5565b979a9699509497509295939492505050565b801515811461231f57600080fd5b600080600060608486031215612cc257600080fd5b83359250602084013591506040840135612cdb81612c9f565b809150509250925092565b60005b83811015612d01578181015183820152602001612ce9565b50506000910152565b6020815260008251806020840152612d29816040850160208701612ce6565b601f01601f19169190910160400192915050565b6020808252825182820181905260009190848201906040850190845b81811015612b825783516001600160a01b031683529284019291840191600101612d59565b60008060408385031215612d9157600080fd5b823591506020830135612da381612c9f565b809150509250929050565b6020808252825182820181905260009190848201906040850190845b81811015612b8257835183529284019291840191600101612dca565b634e487b7160e01b600052603260045260246000fd5b634e487b7160e01b600052601160045260246000fd5b808201808211156122e5576122e5612dfc565b600060018201612e3757612e37612dfc565b5060010190565b634e487b7160e01b600052604160045260246000fd5b600181811c90821680612e6857607f821691505b602082108103612e8857634e487b7160e01b600052602260045260246000fd5b50919050565b601f82111561292c57600081815260208120601f850160051c81016020861015612eb55750805b601f850160051c820191505b81811015612ed457828155600101612ec1565b505050505050565b67ffffffffffffffff831115612ef457612ef4612e3e565b612f0883612f028354612e54565b83612e8e565b6000601f841160018114612f3c5760008515612f245750838201355b600019600387901b1c1916600186901b1783556111d7565b600083815260209020601f19861690835b82811015612f6d5786850135825560209485019460019092019101612f4d565b5086821015612f8a5760001960f88860031b161c19848701351681555b505060018560011b0183555050505050565b818103818111156122e5576122e5612dfc565b80820281158282048414176122e5576122e5612dfc565b600082612fe357634e487b7160e01b600052601260045260246000fd5b500490565b600060208284031215612ffa57600080fd5b815161300581612c9f565b9392505050565b60006020828403121561301e57600080fd5b5051919050565b60008251613037818460208701612ce6565b919091019291505056fea26469706673582212208892ce8175056485acd5792aa5bf41e359526214a6fb050e2e21fdb21dffa9e164736f6c63430008110033d7b6990105719101dabeb77144f2a3385c8033acd3af97e9423a695e81ad1eb5d7b6990105719101dabeb77144f2a3385c8033acd3af97e9423a695e81ad1eb6",
  "linkReferences": {},
  "deployedLinkReferences": {}
}