{
  "_format": "hh-sol-artifact-1",
  "contractName": "PoolMaster",
  "sourceName": "src/backend/contracts/PoolMaster.sol",
  "abi": [
    {
      "inputs": [],
      "stateMutability": "nonpayable",
      "type": "constructor"
    },
    {
      "anonymous": false,
      "inputs": [
        {
          "indexed": false,
          "internalType": "address",
          "name": "user",
          "type": "address"
        },
        {
          "indexed": false,
          "internalType": "uint256",
          "name": "tokenId",
          "type": "uint256"
        },
        {
          "indexed": false,
          "internalType": "bool",
          "name": "isAlpha",
          "type": "bool"
        }
      ],
      "name": "MintSuccessful",
      "type": "event"
    },
    {
      "anonymous": false,
      "inputs": [
        {
          "indexed": true,
          "internalType": "address",
          "name": "previousOwner",
          "type": "address"
        },
        {
          "indexed": true,
          "internalType": "address",
          "name": "newOwner",
          "type": "address"
        }
      ],
      "name": "OwnershipTransferred",
      "type": "event"
    },
    {
      "inputs": [],
      "name": "battlingPhaseDuration",
      "outputs": [
        {
          "internalType": "uint256",
          "name": "",
          "type": "uint256"
        }
      ],
      "stateMutability": "view",
      "type": "function"
    },
    {
      "inputs": [],
      "name": "bettingPhaseDuration",
      "outputs": [
        {
          "internalType": "uint256",
          "name": "",
          "type": "uint256"
        }
      ],
      "stateMutability": "view",
      "type": "function"
    },
    {
      "inputs": [],
      "name": "burnedTokensPercent",
      "outputs": [
        {
          "internalType": "uint256",
          "name": "",
          "type": "uint256"
        }
      ],
      "stateMutability": "view",
      "type": "function"
    },
    {
      "inputs": [
        {
          "internalType": "uint256",
          "name": "_poolWinnerId",
          "type": "uint256"
        }
      ],
      "name": "endEpoch",
      "outputs": [],
      "stateMutability": "nonpayable",
      "type": "function"
    },
    {
      "inputs": [],
      "name": "epochEnded",
      "outputs": [
        {
          "internalType": "bool",
          "name": "",
          "type": "bool"
        }
      ],
      "stateMutability": "view",
      "type": "function"
    },
    {
      "inputs": [
        {
          "internalType": "address",
          "name": "_user",
          "type": "address"
        }
      ],
      "name": "getIsUsdcForAddress",
      "outputs": [
        {
          "internalType": "bool",
          "name": "",
          "type": "bool"
        }
      ],
      "stateMutability": "view",
      "type": "function"
    },
    {
      "inputs": [
        {
          "internalType": "uint256",
          "name": "_poolId",
          "type": "uint256"
        }
      ],
      "name": "getLastWinner",
      "outputs": [
        {
          "internalType": "string",
          "name": "",
          "type": "string"
        }
      ],
      "stateMutability": "view",
      "type": "function"
    },
    {
      "inputs": [],
      "name": "getPhase",
      "outputs": [
        {
          "internalType": "uint256",
          "name": "",
          "type": "uint256"
        }
      ],
      "stateMutability": "view",
      "type": "function"
    },
    {
      "inputs": [
        {
          "internalType": "address",
          "name": "_user",
          "type": "address"
        }
      ],
      "name": "getPoolIdForAddress",
      "outputs": [
        {
          "internalType": "uint256",
          "name": "",
          "type": "uint256"
        }
      ],
      "stateMutability": "view",
      "type": "function"
    },
    {
      "inputs": [
        {
          "internalType": "uint256",
          "name": "_poolId",
          "type": "uint256"
        },
        {
          "internalType": "bool",
          "name": "_isUsdc",
          "type": "bool"
        }
      ],
      "name": "getStakedTokens",
      "outputs": [
        {
          "internalType": "uint256",
          "name": "",
          "type": "uint256"
        }
      ],
      "stateMutability": "view",
      "type": "function"
    },
    {
      "inputs": [
        {
          "internalType": "address",
          "name": "_user",
          "type": "address"
        }
      ],
      "name": "getStakedTokensForAddress",
      "outputs": [
        {
          "internalType": "uint256",
          "name": "",
          "type": "uint256"
        }
      ],
      "stateMutability": "view",
      "type": "function"
    },
    {
      "inputs": [
        {
          "internalType": "uint256",
          "name": "_poolId",
          "type": "uint256"
        }
      ],
      "name": "getSymbol",
      "outputs": [
        {
          "internalType": "string",
          "name": "",
          "type": "string"
        }
      ],
      "stateMutability": "view",
      "type": "function"
    },
    {
      "inputs": [
        {
          "internalType": "uint256",
          "name": "_lastSeconds",
          "type": "uint256"
        }
      ],
      "name": "getWinnerAddressAmountsForLastSeconds",
      "outputs": [
        {
          "internalType": "uint256[]",
          "name": "",
          "type": "uint256[]"
        }
      ],
      "stateMutability": "view",
      "type": "function"
    },
    {
      "inputs": [
        {
          "internalType": "uint256",
          "name": "_lastSeconds",
          "type": "uint256"
        }
      ],
      "name": "getWinnerAddressIsUsdcForLastSeconds",
      "outputs": [
        {
          "internalType": "bool[]",
          "name": "",
          "type": "bool[]"
        }
      ],
      "stateMutability": "view",
      "type": "function"
    },
    {
      "inputs": [
        {
          "internalType": "uint256",
          "name": "_lastSeconds",
          "type": "uint256"
        }
      ],
      "name": "getWinnerAddressStakerAddressForLastSeconds",
      "outputs": [
        {
          "internalType": "address[]",
          "name": "",
          "type": "address[]"
        }
      ],
      "stateMutability": "view",
      "type": "function"
    },
    {
      "inputs": [],
      "name": "loserTokensPercent",
      "outputs": [
        {
          "internalType": "uint256",
          "name": "",
          "type": "uint256"
        }
      ],
      "stateMutability": "view",
      "type": "function"
    },
    {
      "inputs": [],
      "name": "owner",
      "outputs": [
        {
          "internalType": "address",
          "name": "",
          "type": "address"
        }
      ],
      "stateMutability": "view",
      "type": "function"
    },
    {
      "inputs": [],
      "name": "pool3TokensPercent",
      "outputs": [
        {
          "internalType": "uint256",
          "name": "",
          "type": "uint256"
        }
      ],
      "stateMutability": "view",
      "type": "function"
    },
    {
      "inputs": [],
      "name": "renounceOwnership",
      "outputs": [],
      "stateMutability": "nonpayable",
      "type": "function"
    },
    {
      "inputs": [
        {
          "internalType": "uint256",
          "name": "_battlingPhaseDuration",
          "type": "uint256"
        }
      ],
      "name": "setBattlingPhaseDuration",
      "outputs": [],
      "stateMutability": "nonpayable",
      "type": "function"
    },
    {
      "inputs": [
        {
          "internalType": "uint256",
          "name": "_bettingPhaseDuration",
          "type": "uint256"
        }
      ],
      "name": "setBettingPhaseDuration",
      "outputs": [],
      "stateMutability": "nonpayable",
      "type": "function"
    },
    {
      "inputs": [
        {
          "internalType": "uint256",
          "name": "_burnedTokensPercent",
          "type": "uint256"
        }
      ],
      "name": "setBurnedTokensPercent",
      "outputs": [],
      "stateMutability": "nonpayable",
      "type": "function"
    },
    {
      "inputs": [
        {
          "internalType": "uint256",
          "name": "_loserTokensPercent",
          "type": "uint256"
        }
      ],
      "name": "setLoserTokensPercent",
      "outputs": [],
      "stateMutability": "nonpayable",
      "type": "function"
    },
    {
      "inputs": [
        {
          "internalType": "uint256",
          "name": "_pool3TokensPercent",
          "type": "uint256"
        }
      ],
      "name": "setPool3TokensPercent",
      "outputs": [],
      "stateMutability": "nonpayable",
      "type": "function"
    },
    {
      "inputs": [
        {
          "internalType": "address",
          "name": "_tokenAddress",
          "type": "address"
        }
      ],
      "name": "setTokenAddress",
      "outputs": [],
      "stateMutability": "nonpayable",
      "type": "function"
    },
    {
      "inputs": [
        {
          "internalType": "uint256",
          "name": "_unstakeFee",
          "type": "uint256"
        }
      ],
      "name": "setUnstakeFee",
      "outputs": [],
      "stateMutability": "nonpayable",
      "type": "function"
    },
    {
      "inputs": [
        {
          "internalType": "address",
          "name": "_usdcAddress",
          "type": "address"
        }
      ],
      "name": "setUsdcAddress",
      "outputs": [],
      "stateMutability": "nonpayable",
      "type": "function"
    },
    {
      "inputs": [
        {
          "internalType": "uint256",
          "name": "_usdcStakeFee",
          "type": "uint256"
        }
      ],
      "name": "setUsdcStakeFee",
      "outputs": [],
      "stateMutability": "nonpayable",
      "type": "function"
    },
    {
      "inputs": [
        {
          "internalType": "uint256",
          "name": "_winnerTokensPercent",
          "type": "uint256"
        }
      ],
      "name": "setWinnerTokensPercent",
      "outputs": [],
      "stateMutability": "nonpayable",
      "type": "function"
    },
    {
      "inputs": [
        {
          "internalType": "uint256",
          "name": "_poolId",
          "type": "uint256"
        },
        {
          "internalType": "uint256",
          "name": "_amount",
          "type": "uint256"
        },
        {
          "internalType": "bool",
          "name": "_isUsdc",
          "type": "bool"
        }
      ],
      "name": "stake",
      "outputs": [],
      "stateMutability": "payable",
      "type": "function"
    },
    {
      "inputs": [
        {
          "internalType": "string",
          "name": "_symbol1",
          "type": "string"
        },
        {
          "internalType": "string",
          "name": "_symbol2",
          "type": "string"
        }
      ],
      "name": "startEpoch",
      "outputs": [],
      "stateMutability": "nonpayable",
      "type": "function"
    },
    {
      "inputs": [],
      "name": "timestampStartEpoch",
      "outputs": [
        {
          "internalType": "uint256",
          "name": "",
          "type": "uint256"
        }
      ],
      "stateMutability": "view",
      "type": "function"
    },
    {
      "inputs": [],
      "name": "token",
      "outputs": [
        {
          "internalType": "contract IERC20",
          "name": "",
          "type": "address"
        }
      ],
      "stateMutability": "view",
      "type": "function"
    },
    {
      "inputs": [
        {
          "internalType": "address",
          "name": "newOwner",
          "type": "address"
        }
      ],
      "name": "transferOwnership",
      "outputs": [],
      "stateMutability": "nonpayable",
      "type": "function"
    },
    {
      "inputs": [],
      "name": "unstakeFee",
      "outputs": [
        {
          "internalType": "uint256",
          "name": "",
          "type": "uint256"
        }
      ],
      "stateMutability": "view",
      "type": "function"
    },
    {
      "inputs": [],
      "name": "usdc",
      "outputs": [
        {
          "internalType": "contract IERC20",
          "name": "",
          "type": "address"
        }
      ],
      "stateMutability": "view",
      "type": "function"
    },
    {
      "inputs": [],
      "name": "usdcStakeFee",
      "outputs": [
        {
          "internalType": "uint256",
          "name": "",
          "type": "uint256"
        }
      ],
      "stateMutability": "view",
      "type": "function"
    },
    {
      "inputs": [],
      "name": "winnerTokensPercent",
      "outputs": [
        {
          "internalType": "uint256",
          "name": "",
          "type": "uint256"
        }
      ],
      "stateMutability": "view",
      "type": "function"
    },
    {
      "inputs": [],
      "name": "withdrawEth",
      "outputs": [],
      "stateMutability": "nonpayable",
      "type": "function"
    },
    {
      "inputs": [],
      "name": "withdrawToken",
      "outputs": [],
      "stateMutability": "nonpayable",
      "type": "function"
    },
    {
      "inputs": [],
      "name": "withdrawUsdc",
      "outputs": [],
      "stateMutability": "nonpayable",
      "type": "function"
    }
  ],
  "bytecode": "0x6080604052617080600355620151806004556104e2600555611f4060065561019060075561064060085560c86009556064600a55600b805460ff191660011790553480156200004d57600080fd5b5062000059336200027d565b6040805160e081018252600060c082018181528252825160208181018552828252830152918101829052606081018290526080810182905260a08101829052600d8054600181018255925280519091600602600080516020620037c683398151915201908190620000cb908262000372565b5060208201516001820190620000e2908262000372565b5060408281015160028301556060808401516003840155608080850151600485015560a094850151600590940193909355815160e081018352600060c082018181528252835160208181018652828252830152928101839052908101829052918201819052918101829052600d8054600181018255925280519091600602600080516020620037c68339815191520190819062000180908262000372565b506020820151600182019062000197908262000372565b5060408281015160028301556060808401516003840155608080850151600485015560a094850151600590940193909355815160e081018352600060c082018181528252835160208181018652828252830152928101839052908101829052918201819052918101829052600d8054600181018255925280519091600602600080516020620037c68339815191520190819062000235908262000372565b50602082015160018201906200024c908262000372565b5060408201518160020155606082015181600301556080820151816004015560a0820151816005015550506200043e565b600080546001600160a01b038381166001600160a01b0319831681178455604051919092169283917f8be0079c531659141344cd1fd0a4f28419497f9722a3daafe3b4186f6b6457e09190a35050565b634e487b7160e01b600052604160045260246000fd5b600181811c90821680620002f857607f821691505b6020821081036200031957634e487b7160e01b600052602260045260246000fd5b50919050565b601f8211156200036d57600081815260208120601f850160051c81016020861015620003485750805b601f850160051c820191505b81811015620003695782815560010162000354565b5050505b505050565b81516001600160401b038111156200038e576200038e620002cd565b620003a6816200039f8454620002e3565b846200031f565b602080601f831160018114620003de5760008415620003c55750858301515b600019600386901b1c1916600185901b17855562000369565b600085815260208120601f198616915b828110156200040f57888601518255948401946001909101908401620003ee565b50858210156200042e5787850151600019600388901b60f8161c191681555b5050505050600190811b01905550565b613378806200044e6000396000f3fe6080604052600436106102455760003560e01c80638da5cb5b11610139578063bc770d06116100b6578063d8e660ed1161007a578063d8e660ed146106b4578063dc08e769146106ed578063eced02801461071a578063f2fde38b1461072f578063fc0c546a1461074f578063fee84d4e1461076f57600080fd5b8063bc770d0614610629578063ca628c7814610649578063d38bcdee1461065e578063d459a4181461067e578063d5030a031461069457600080fd5b80639a1dee2b116100fd5780639a1dee2b146105b25780639ee664b6146105c8578063a0ef91df146105de578063ae3e04b1146105f3578063ba2f303b1461061357600080fd5b80638da5cb5b146105125780638ea97d2614610530578063949240d414610546578063989e92991461056657806398c44b7d1461057c57600080fd5b8063561b2463116101c757806364cc37fb1161018b57806364cc37fb14610470578063715018a6146104905780637d8704b1146104a55780638301151c146104d25780638bbbbbde146104f257600080fd5b8063561b2463146103cb5780635a8b9599146103de5780635cdef57d1461041a5780636164e45d146104305780636418413c1461045057600080fd5b80631f5c735b1161020e5780631f5c735b1461031957806325b511bd1461033d57806326a4e8d2146103535780633e413bee1461037357806352916f25146103ab57600080fd5b806218a1161461024a57806307ed92d01461026c57806316ea2c571461028c578063175db3c4146102c25780631d1c7fab146102ec575b600080fd5b34801561025657600080fd5b5061026a610265366004612cac565b610784565b005b34801561027857600080fd5b5061026a610287366004612cac565b610791565b34801561029857600080fd5b506102ac6102a7366004612cac565b61079e565b6040516102b99190612ce9565b60405180910390f35b3480156102ce57600080fd5b50600b546102dc9060ff1681565b60405190151581526020016102b9565b3480156102f857600080fd5b5061030c610307366004612cac565b610854565b6040516102b99190612d1c565b34801561032557600080fd5b5061032f60055481565b6040519081526020016102b9565b34801561034957600080fd5b5061032f60045481565b34801561035f57600080fd5b5061026a61036e366004612d62565b6109a6565b34801561037f57600080fd5b50600254610393906001600160a01b031681565b6040516001600160a01b0390911681526020016102b9565b3480156103b757600080fd5b5061026a6103c6366004612cac565b6109d0565b61026a6103d9366004612da0565b6109dd565b3480156103ea57600080fd5b506102dc6103f9366004612d62565b6001600160a01b03166000908152600e602052604090206002015460ff1690565b34801561042657600080fd5b5061032f60085481565b34801561043c57600080fd5b5061026a61044b366004612cac565b61105b565b34801561045c57600080fd5b506102ac61046b366004612cac565b611f97565b34801561047c57600080fd5b5061026a61048b366004612cac565b611fc8565b34801561049c57600080fd5b5061026a611fd5565b3480156104b157600080fd5b506104c56104c0366004612cac565b611fe9565b6040516102b99190612dd9565b3480156104de57600080fd5b5061026a6104ed366004612cac565b612147565b3480156104fe57600080fd5b5061026a61050d366004612cac565b612154565b34801561051e57600080fd5b506000546001600160a01b0316610393565b34801561053c57600080fd5b5061032f60095481565b34801561055257600080fd5b5061032f610561366004612e1a565b612161565b34801561057257600080fd5b5061032f60035481565b34801561058857600080fd5b5061032f610597366004612d62565b6001600160a01b03166000908152600e602052604090205490565b3480156105be57600080fd5b5061032f600c5481565b3480156105d457600080fd5b5061032f60065481565b3480156105ea57600080fd5b5061026a6121c1565b3480156105ff57600080fd5b5061026a61060e366004612cac565b6121f8565b34801561061f57600080fd5b5061032f60075481565b34801561063557600080fd5b5061026a610644366004612cac565b612205565b34801561065557600080fd5b5061026a612212565b34801561066a57600080fd5b5061026a610679366004612d62565b612304565b34801561068a57600080fd5b5061032f600a5481565b3480156106a057600080fd5b5061026a6106af366004612e93565b61232e565b3480156106c057600080fd5b5061032f6106cf366004612d62565b6001600160a01b03166000908152600e602052604090206001015490565b3480156106f957600080fd5b5061070d610708366004612cac565b61260a565b6040516102b99190612eff565b34801561072657600080fd5b5061032f612741565b34801561073b57600080fd5b5061026a61074a366004612d62565b61278d565b34801561075b57600080fd5b50600154610393906001600160a01b031681565b34801561077b57600080fd5b5061026a612803565b61078c612845565b600955565b610799612845565b600455565b6060600d82815481106107b3576107b3612f37565b906000526020600020906006020160010180546107cf90612f4d565b80601f01602080910402602001604051908101604052809291908181526020018280546107fb90612f4d565b80156108485780601f1061081d57610100808354040283529160200191610848565b820191906000526020600020905b81548152906001019060200180831161082b57829003601f168201915b50505050509050919050565b60125460609042906000805b828110156108b55783866012838154811061087d5761087d612f37565b9060005260206000209060030201600201546108999190612f9d565b11156108ad57816108a981612fb0565b9250505b600101610860565b5060008167ffffffffffffffff8111156108d1576108d1612fc9565b6040519080825280602002602001820160405280156108fa578160200160208202803683370190505b50905060005b8381101561099c5784876012838154811061091d5761091d612f37565b9060005260206000209060030201600201546109399190612f9d565b1115610994576012818154811061095257610952612f37565b906000526020600020906003020160010160009054906101000a900460ff1682828151811061098357610983612f37565b911515602092830291909101909101525b600101610900565b5095945050505050565b6109ae612845565b600180546001600160a01b0319166001600160a01b0392909216919091179055565b6109d8612845565b600a55565b600b5460ff1615610a2d5760405162461bcd60e51b8152602060048201526015602482015274115c1bd8da081b9bdd081cdd185c9d1959081e595d605a1b60448201526064015b60405180910390fd5b610a35612741565b15610a825760405162461bcd60e51b815260206004820152601860248201527f42657474696e672070686173652068617320656e6465642e00000000000000006044820152606401610a24565b6002831115610ac55760405162461bcd60e51b815260206004820152600f60248201526e125b9d985b1a59081c1bdbdb081259608a1b6044820152606401610a24565b336000908152600e602052604090206002015461010090046001600160a01b031615610b3e5760405162461bcd60e51b815260206004820152602260248201527f5573657220616c7265616479207374616b656420666f7220746869732065706f6044820152610c6d60f31b6064820152608401610a24565b818115610bcf576001841115610b885760405162461bcd60e51b815260206004820152600f60248201526e125b9d985b1a59081c1bdbdb081259608a1b6044820152606401610a24565b612710600a54612710610b9b9190612fdf565b610ba59085612ff2565b610baf9190613009565b600254909150610bca906001600160a01b031633308661289f565b610be7565b600154610be7906001600160a01b031633308661289f565b60008111610c375760405162461bcd60e51b815260206004820152601d60248201527f4d757374207374616b65206d6f7265207468616e203020746f6b656e730000006044820152606401610a24565b60408051608081018252858152602080820184815285151583850190815233606085018181526000918252600e90945294909420835181559051600182015592516002909301805491516001600160a81b0319909216931515610100600160a81b031916939093176101006001600160a01b03909216919091021790915582610cc05783610cc3565b60005b600d8681548110610cd657610cd6612f37565b90600052602060002090600602016002016000828254610cf69190612f9d565b90915550839050610d08576000610d0a565b835b600d8681548110610d1d57610d1d612f37565b90600052602060002090600602016003016000828254610d3d9190612f9d565b90915550839050610d4f576001610d52565b60005b60ff16600d8681548110610d6857610d68612f37565b90600052602060002090600602016004016000828254610d889190612f9d565b90915550839050610d9a576000610d9d565b60015b60ff16600d8681548110610db357610db3612f37565b90600052602060002090600602016005016000828254610dd39190612f9d565b90915550506000859003610eae57600f8054600181018255600091909152815160039091027f8d1108e10bcb7c27dddfc02ed9d693a074039d026cf4ea4240b40f7d581ac80281019190915560208201517f8d1108e10bcb7c27dddfc02ed9d693a074039d026cf4ea4240b40f7d581ac80382015560408201517f8d1108e10bcb7c27dddfc02ed9d693a074039d026cf4ea4240b40f7d581ac804909101805460608401516001600160a01b031661010002610100600160a81b0319931515939093166001600160a81b031990911617919091179055611054565b84600103610f835760108054600181018255600091909152815160039091027f1b6847dc741a1b0cd08d278845f9d819d87b734759afb55fe2de5cb82a9ae67281019190915560208201517f1b6847dc741a1b0cd08d278845f9d819d87b734759afb55fe2de5cb82a9ae67382015560408201517f1b6847dc741a1b0cd08d278845f9d819d87b734759afb55fe2de5cb82a9ae674909101805460608401516001600160a01b031661010002610100600160a81b0319931515939093166001600160a81b031990911617919091179055611054565b846002036110545760118054600181018255600091909152815160039091027f31ecc21a745e3968a04e9570e4425bc18fa8019c68028196b546d1669c200c6881019190915560208201517f31ecc21a745e3968a04e9570e4425bc18fa8019c68028196b546d1669c200c6982015560408201517f31ecc21a745e3968a04e9570e4425bc18fa8019c68028196b546d1669c200c6a909101805460608401516001600160a01b031661010002610100600160a81b0319931515939093166001600160a81b0319909116179190911790555b5050505050565b611063612845565b600b5460ff16156110b65760405162461bcd60e51b815260206004820152601b60248201527f43757272656e742065706f636820616c726561647920656e64656400000000006044820152606401610a24565b600b805460ff191660019081179091556000906110d4908390612fdf565b9050600081156110e6576010546110ea565b600f545b9050600083156110fc57601054611100565b600f545b905060405180602001604052806000815250600d848154811061112557611125612f37565b90600052602060002090600602016001019081611142919061308e565b50600d848154811061115657611156612f37565b9060005260206000209060060201600001600d858154811061117a5761117a612f37565b906000526020600020906006020160010190816111979190613148565b5060008060005b8481101561148b57600086156111d457601082815481106111c1576111c1612f37565b90600052602060002090600302016111f6565b600f82815481106111e7576111e7612f37565b90600052602060002090600302015b604080516080810182528254815260018301546020820181905260029093015460ff81161515928201929092526101009091046001600160a01b031660608201526005549092506000916127109161124d91612ff2565b6112579190613009565b9050600081836020015161126b9190612fdf565b905061129d6040518060400160405280600f81526020016e17dd5cd95c931bdcd9505b5bdd5b9d608a1b8152506128ff565b6112a682612942565b6112d66040518060400160405280600f81526020016e17dd5cd95c92d9595c105b5bdd5b9d608a1b8152506128ff565b6112df81612942565b82604001511561137657600254606084015160405163a9059cbb60e01b81526001600160a01b0391821660048201526024810184905291169063a9059cbb906044016020604051808303816000875af1158015611340573d6000803e3d6000fd5b505050506040513d601f19601f820116820180604052508101906113649190613215565b5061136f8286612f9d565b94506113ff565b600154606084015160405163a9059cbb60e01b81526001600160a01b0391821660048201526024810184905291169063a9059cbb906044016020604051808303816000875af11580156113cd573d6000803e3d6000fd5b505050506040513d601f19601f820116820180604052508101906113f19190613215565b506113fc8287612f9d565b95505b5050604080516080810182526000808252602080830182815283850183815260608086018581529701516001600160a01b039081168552600e90935294909220925183559051600183810191909155925160029092018054945190911661010002610100600160a81b0319921515929092166001600160a81b031990941693909317179091550161119e565b5060006127106006548461149f9190612ff2565b6114a99190613009565b90506000612710600654846114be9190612ff2565b6114c89190613009565b90506000806114ee604051806060016040528060218152602001613322602191396128ff565b6114f78a612942565b611524600d8b8154811061150d5761150d612f37565b906000526020600020906006020160040154612942565b6000600d8b8154811061153957611539612f37565b906000526020600020906006020160040154111561158457600d8a8154811061156457611564612f37565b906000526020600020906006020160040154846115819190613009565b91505b6000600d8b8154811061159957611599612f37565b90600052602060002090600602016005015411156115e457600d8a815481106115c4576115c4612f37565b906000526020600020906006020160050154836115e19190613009565b90505b6116186040518060400160405280601381526020017217dd1bdad95b955cd95c95da5b905b5bdd5b9d606a1b8152506128ff565b61162182612942565b6116586040518060400160405280601681526020017517dd1bdad95b95da5b9b9a5b99d51bdad95b941bdbdb60521b8152506128ff565b61166184612942565b611682604051806060016040528060218152602001613322602191396128ff565b611698600d8b8154811061150d5761150d612f37565b60005b87811015611ae75760008b156116d157601082815481106116be576116be612f37565b90600052602060002090600302016116f3565b600f82815481106116e4576116e4612f37565b90600052602060002090600302015b60408051608081018252825481526001830154602082015260029092015460ff81161580159284019290925261010090046001600160a01b031660608301529091506118cd57600254606082015160208301516001600160a01b039092169163a9059cbb9190611764908790612f9d565b6040516001600160e01b031960e085901b1681526001600160a01b03909216600483015260248201526044016020604051808303816000875af11580156117af573d6000803e3d6000fd5b505050506040513d601f19601f820116820180604052508101906117d39190613215565b5060408051608081018252848152828201511515602082019081526060808501516001600160a01b039081169484019485524291840191825260128054600181018255600091909152935160039094027fbb8a6a4669ba250d26cd7a459eca9d215f8307e33aebe50379bc5a3617ec344481019490945591517fbb8a6a4669ba250d26cd7a459eca9d215f8307e33aebe50379bc5a3617ec344584018054955190931661010002610100600160a81b0319911515919091166001600160a81b03199095169490941793909317905590517fbb8a6a4669ba250d26cd7a459eca9d215f8307e33aebe50379bc5a3617ec344690910155611a5d565b600154606082015160208301516001600160a01b039092169163a9059cbb91906118f8908890612f9d565b6040516001600160e01b031960e085901b1681526001600160a01b03909216600483015260248201526044016020604051808303816000875af1158015611943573d6000803e3d6000fd5b505050506040513d601f19601f820116820180604052508101906119679190613215565b5060408051608081018252858152828201511515602082019081526060808501516001600160a01b039081169484019485524291840191825260128054600181018255600091909152935160039094027fbb8a6a4669ba250d26cd7a459eca9d215f8307e33aebe50379bc5a3617ec344481019490945591517fbb8a6a4669ba250d26cd7a459eca9d215f8307e33aebe50379bc5a3617ec344584018054955190931661010002610100600160a81b0319911515919091166001600160a81b03199095169490941793909317905590517fbb8a6a4669ba250d26cd7a459eca9d215f8307e33aebe50379bc5a3617ec3446909101555b604080516080810182526000808252602080830182815283850183815260608086018581529701516001600160a01b039081168552600e90935294909220925183559051600183810191909155925160029092018054945190911661010002610100600160a81b0319921515929092166001600160a81b031990941693909317179091550161169b565b50600061271060075488611afb9190612ff2565b611b059190613009565b9050600061271060075488611b1a9190612ff2565b611b249190613009565b60025460405163a9059cbb60e01b815261dead6004820152602481018390529192506001600160a01b03169063a9059cbb906044016020604051808303816000875af1158015611b78573d6000803e3d6000fd5b505050506040513d601f19601f82011682018060405250810190611b9c9190613215565b5060015460405163a9059cbb60e01b815261dead6004820152602481018490526001600160a01b039091169063a9059cbb906044016020604051808303816000875af1158015611bf0573d6000803e3d6000fd5b505050506040513d601f19601f82011682018060405250810190611c149190613215565b5060115460085460009061271090611c2c908c612ff2565b611c369190613009565b905060006127106008548b611c4b9190612ff2565b611c559190613009565b90506000806000600d600281548110611c7057611c70612f37565b9060005260206000209060060201600401541115611cbc57600d600281548110611c9c57611c9c612f37565b90600052602060002090600602016004015484611cb99190613009565b91505b6000600d600281548110611cd257611cd2612f37565b9060005260206000209060060201600501541115611d1e57600d600281548110611cfe57611cfe612f37565b90600052602060002090600602016005015483611d1b9190613009565b90505b60005b85811015611f5f57600060118281548110611d3e57611d3e612f37565b60009182526020918290206040805160808101825260039093029091018054835260018101549383019390935260029092015460ff8116158015938301939093526001600160a01b036101009091041660608201529150611e3957600254606082015160208301516001600160a01b039092169163a9059cbb9190611dc4908790612f9d565b6040516001600160e01b031960e085901b1681526001600160a01b03909216600483015260248201526044016020604051808303816000875af1158015611e0f573d6000803e3d6000fd5b505050506040513d601f19601f82011682018060405250810190611e339190613215565b50611ed5565b600154606082015160208301516001600160a01b039092169163a9059cbb9190611e64908890612f9d565b6040516001600160e01b031960e085901b1681526001600160a01b03909216600483015260248201526044016020604051808303816000875af1158015611eaf573d6000803e3d6000fd5b505050506040513d601f19601f82011682018060405250810190611ed39190613215565b505b604080516080810182526000808252602080830182815283850183815260608086018581529701516001600160a01b039081168552600e90935294909220925183559051600183810191909155925160029092018054945190911661010002610100600160a81b0319921515929092166001600160a81b0319909416939093171790915501611d21565b50611f6c600f6000612c5f565b611f7860106000612c5f565b611f8460116000612c5f565b5050505050505050505050505050505050565b6060600d8281548110611fac57611fac612f37565b906000526020600020906006020160000180546107cf90612f4d565b611fd0612845565b600855565b611fdd612845565b611fe76000612987565b565b60125460609042906000805b8281101561204a5783866012838154811061201257612012612f37565b90600052602060002090600302016002015461202e9190612f9d565b1115612042578161203e81612fb0565b9250505b600101611ff5565b5060008167ffffffffffffffff81111561206657612066612fc9565b60405190808252806020026020018201604052801561208f578160200160208202803683370190505b50905060005b8381101561099c578487601283815481106120b2576120b2612f37565b9060005260206000209060030201600201546120ce9190612f9d565b111561213f57601281815481106120e7576120e7612f37565b906000526020600020906003020160010160019054906101000a90046001600160a01b031682828151811061211e5761211e612f37565b60200260200101906001600160a01b031690816001600160a01b0316815250505b600101612095565b61214f612845565b600355565b61215c612845565b600655565b60008161219257600d838154811061217b5761217b612f37565b9060005260206000209060060201600201546121b8565b600d83815481106121a5576121a5612f37565b9060005260206000209060060201600301545b90505b92915050565b6121c9612845565b60405133904780156108fc02916000818181858888f193505050501580156121f5573d6000803e3d6000fd5b50565b612200612845565b600555565b61220d612845565b600755565b61221a612845565b6001546002546040516370a0823160e01b81523060048201526001600160a01b039283169263a9059cbb9233929116906370a08231906024015b602060405180830381865afa158015612271573d6000803e3d6000fd5b505050506040513d601f19601f820116820180604052508101906122959190613232565b6040516001600160e01b031960e085901b1681526001600160a01b03909216600483015260248201526044016020604051808303816000875af11580156122e0573d6000803e3d6000fd5b505050506040513d601f19601f820116820180604052508101906121f59190613215565b61230c612845565b600280546001600160a01b0319166001600160a01b0392909216919091179055565b612336612845565b600b5460ff166123885760405162461bcd60e51b815260206004820152601b60248201527f43757272656e742065706f636820686173206e6f7420656e64656400000000006044820152606401610a24565b600b805460ff19169055600d8054859185916000906123a9576123a9612f37565b906000526020600020906006020160000191826123c792919061324b565b508181600d6001815481106123de576123de612f37565b906000526020600020906006020160000191826123fc92919061324b565b506000600d60008154811061241357612413612f37565b9060005260206000209060060201600201819055506000600d60018154811061243e5761243e612f37565b9060005260206000209060060201600201819055506000600d60028154811061246957612469612f37565b9060005260206000209060060201600201819055506000600d60008154811061249457612494612f37565b9060005260206000209060060201600301819055506000600d6001815481106124bf576124bf612f37565b9060005260206000209060060201600301819055506000600d6002815481106124ea576124ea612f37565b9060005260206000209060060201600301819055506000600d60008154811061251557612515612f37565b9060005260206000209060060201600401819055506000600d60018154811061254057612540612f37565b9060005260206000209060060201600401819055506000600d60028154811061256b5761256b612f37565b9060005260206000209060060201600401819055506000600d60008154811061259657612596612f37565b9060005260206000209060060201600501819055506000600d6001815481106125c1576125c1612f37565b9060005260206000209060060201600501819055506000600d6002815481106125ec576125ec612f37565b6000918252602090912060056006909202010155505042600c555050565b60125460609042906000805b8281101561266b5783866012838154811061263357612633612f37565b90600052602060002090600302016002015461264f9190612f9d565b1115612663578161265f81612fb0565b9250505b600101612616565b5060008167ffffffffffffffff81111561268757612687612fc9565b6040519080825280602002602001820160405280156126b0578160200160208202803683370190505b50905060005b8381101561099c578487601283815481106126d3576126d3612f37565b9060005260206000209060030201600201546126ef9190612f9d565b1115612739576012818154811061270857612708612f37565b90600052602060002090600302016000015482828151811061272c5761272c612f37565b6020026020010181815250505b6001016126b6565b600080600c54426127529190612fdf565b90506004548111806127665750600b5460ff165b1561277357600291505090565b60035481111561278557600191505090565b600091505090565b612795612845565b6001600160a01b0381166127fa5760405162461bcd60e51b815260206004820152602660248201527f4f776e61626c653a206e6577206f776e657220697320746865207a65726f206160448201526564647265737360d01b6064820152608401610a24565b6121f581612987565b61280b612845565b6002546040516370a0823160e01b81523060048201526001600160a01b039091169063a9059cbb90339083906370a0823190602401612254565b6000546001600160a01b03163314611fe75760405162461bcd60e51b815260206004820181905260248201527f4f776e61626c653a2063616c6c6572206973206e6f7420746865206f776e65726044820152606401610a24565b604080516001600160a01b0385811660248301528416604482015260648082018490528251808303909101815260849091019091526020810180516001600160e01b03166323b872dd60e01b1790526128f99085906129d7565b50505050565b6121f5816040516024016129139190612ce9565b60408051601f198184030181529190526020810180516001600160e01b031663104c13eb60e21b179052612aae565b6121f58160405160240161295891815260200190565b60408051601f198184030181529190526020810180516001600160e01b031663f82c50f160e01b179052612aae565b600080546001600160a01b038381166001600160a01b0319831681178455604051919092169283917f8be0079c531659141344cd1fd0a4f28419497f9722a3daafe3b4186f6b6457e09190a35050565b6000612a2c826040518060400160405280602081526020017f5361666545524332303a206c6f772d6c6576656c2063616c6c206661696c6564815250856001600160a01b0316612acf9092919063ffffffff16565b805190915015612aa95780806020019051810190612a4a9190613215565b612aa95760405162461bcd60e51b815260206004820152602a60248201527f5361666545524332303a204552433230206f7065726174696f6e20646964206e6044820152691bdd081cdd58d8d9595960b21b6064820152608401610a24565b505050565b80516a636f6e736f6c652e6c6f67602083016000808483855afa5050505050565b6060612ade8484600085612ae6565b949350505050565b606082471015612b475760405162461bcd60e51b815260206004820152602660248201527f416464726573733a20696e73756666696369656e742062616c616e636520666f6044820152651c8818d85b1b60d21b6064820152608401610a24565b600080866001600160a01b03168587604051612b639190613305565b60006040518083038185875af1925050503d8060008114612ba0576040519150601f19603f3d011682016040523d82523d6000602084013e612ba5565b606091505b5091509150612bb687838387612bc1565b979650505050505050565b60608315612c30578251600003612c29576001600160a01b0385163b612c295760405162461bcd60e51b815260206004820152601d60248201527f416464726573733a2063616c6c20746f206e6f6e2d636f6e74726163740000006044820152606401610a24565b5081612ade565b612ade8383815115612c455781518083602001fd5b8060405162461bcd60e51b8152600401610a249190612ce9565b50805460008255600302906000526020600020908101906121f591905b80821115612ca857600080825560018201556002810180546001600160a81b0319169055600301612c7c565b5090565b600060208284031215612cbe57600080fd5b5035919050565b60005b83811015612ce0578181015183820152602001612cc8565b50506000910152565b6020815260008251806020840152612d08816040850160208701612cc5565b601f01601f19169190910160400192915050565b6020808252825182820181905260009190848201906040850190845b81811015612d56578351151583529284019291840191600101612d38565b50909695505050505050565b600060208284031215612d7457600080fd5b81356001600160a01b0381168114612d8b57600080fd5b9392505050565b80151581146121f557600080fd5b600080600060608486031215612db557600080fd5b83359250602084013591506040840135612dce81612d92565b809150509250925092565b6020808252825182820181905260009190848201906040850190845b81811015612d565783516001600160a01b031683529284019291840191600101612df5565b60008060408385031215612e2d57600080fd5b823591506020830135612e3f81612d92565b809150509250929050565b60008083601f840112612e5c57600080fd5b50813567ffffffffffffffff811115612e7457600080fd5b602083019150836020828501011115612e8c57600080fd5b9250929050565b60008060008060408587031215612ea957600080fd5b843567ffffffffffffffff80821115612ec157600080fd5b612ecd88838901612e4a565b90965094506020870135915080821115612ee657600080fd5b50612ef387828801612e4a565b95989497509550505050565b6020808252825182820181905260009190848201906040850190845b81811015612d5657835183529284019291840191600101612f1b565b634e487b7160e01b600052603260045260246000fd5b600181811c90821680612f6157607f821691505b602082108103612f8157634e487b7160e01b600052602260045260246000fd5b50919050565b634e487b7160e01b600052601160045260246000fd5b808201808211156121bb576121bb612f87565b600060018201612fc257612fc2612f87565b5060010190565b634e487b7160e01b600052604160045260246000fd5b818103818111156121bb576121bb612f87565b80820281158282048414176121bb576121bb612f87565b60008261302657634e487b7160e01b600052601260045260246000fd5b500490565b601f821115612aa957600081815260208120601f850160051c810160208610156130525750805b601f850160051c820191505b818110156130715782815560010161305e565b505050505050565b600019600383901b1c191660019190911b1790565b815167ffffffffffffffff8111156130a8576130a8612fc9565b6130bc816130b68454612f4d565b8461302b565b602080601f8311600181146130eb57600084156130d95750858301515b6130e38582613079565b865550613071565b600085815260208120601f198616915b8281101561311a578886015182559484019460019091019084016130fb565b50858210156131385787850151600019600388901b60f8161c191681555b5050505050600190811b01905550565b818103613153575050565b61315d8254612f4d565b67ffffffffffffffff81111561317557613175612fc9565b613183816130b68454612f4d565b6000601f8211600181146131b1576000831561319f5750848201545b6131a98482613079565b855550611054565b600085815260209020601f19841690600086815260209020845b838110156131eb57828601548255600195860195909101906020016131cb565b50858310156131385793015460001960f8600387901b161c19169092555050600190811b01905550565b60006020828403121561322757600080fd5b8151612d8b81612d92565b60006020828403121561324457600080fd5b5051919050565b67ffffffffffffffff83111561326357613263612fc9565b613277836132718354612f4d565b8361302b565b6000601f8411600181146132a557600085156132935750838201355b61329d8682613079565b845550611054565b600083815260209020601f19861690835b828110156132d657868501358255602094850194600190920191016132b6565b50868210156132f35760001960f88860031b161c19848701351681555b505060018560011b0183555050505050565b60008251613317818460208701612cc5565b919091019291505056fe706f6f6c735b5f706f6f6c57696e6e657249645d2e746f6b656e5374616b657273a2646970667358221220e8364a2314a13e97995e540509c37b91ef0fe030ee364b87128023fa147deddc64736f6c63430008110033d7b6990105719101dabeb77144f2a3385c8033acd3af97e9423a695e81ad1eb5",
  "linkReferences": {},
  "deployedLinkReferences": {}
}